:020000040800F2
:100000007820002039170008590900085B0900080A
:100010005F09000863090008670900080000000084
:100020000000000000000000000000006B09000854
:100030006D090008000000006F0900087109000840
:1000400053170008531700085317000853170008E8
:1000500053170008531700085317000853170008D8
:1000600053170008531700085317000853170008C8
:1000700053170008531700085317000853170008B8
:1000800053170008531700085317000853170008A8
:100090005317000853170008531700085317000898
:1000A00053170008470800085317000853170008A3
:1000B0005317000853170008531700085317000878
:1000C0005317000853170008531700085317000868
:1000D00053170008AD1600085317000853170008FF
:1000E0005317000853170008531700085317000848
:1000F0005317000853170008531700085317000838
:100100005317000853170008531700085317000827
:100110005317000853170008531700085317000817
:100120005317000853170008531700085317000807
:1001300000F002F800F03AF80AA090E8000C8244BF
:100140008344AAF10107DA4501D100F02FF8AFF29C
:10015000090EBAE80F0013F0010F18BFFB1A43F0A5
:1001600001031847844F0000A44F0000103A24BF39
:1001700078C878C1FAD8520724BF30C830C144BF0C
:1001800004680C607047000000230024002500264E
:10019000103A28BF78C1FBD8520728BF30C148BFEA
:1001A0000B6070471FB51FBD10B510BD02F0FCFFFE
:1001B0001146FFF7F7FF00F091FA03F01AF803B4C5
:1001C000FFF7F2FF03BC01F027FA00002DE9F04F22
:1001D0008DB00646894600243146FE4804F082F878
:1001E000074604F041F9FC490860484604F058F914
:1001F0000746FA4904F076F8F9490860F9480078AA
:10020000002871D1F449086800BF4FE0601C03F07A
:1002100012FE82468B46F048006803F00CFE024650
:100220000B46CDE90001F048F04903F04FFC52467F
:100230005B46CDE9020103F029FECDE9040103F09C
:1002400013FB07468846E648006804F013F83A4670
:100250004346CDE9060103F019FE0022E44BCDE947
:10026000080103F013FECDE90A0103F0B7FD0546CE
:10027000B5F5617F03D215B14FF4617505E040F625
:100280008C20854201D94FF46165C5F56160D9497B
:1002900041F8240051F82410CF4A106800EBD072C6
:1002A00004EB6202D44B43F82210641CCA4908686C
:1002B00000EBD071B4EB610FA8DB0FE04FF461608D
:1002C000CC4941F824000146C34A106800EBD072C3
:1002D000A4EB6202C84B43F82210641CBE480068BD
:1002E0008442EBDB6CE0FFE700244DE0601C03F090
:1002F000A2FDCDE90201B848006803F09CFD074665
:100300003A460B46B848B94903F0E0FBCDE9000195
:10031000DDE9022303F0BAFDCDE9040103F0A4FAFC
:10032000CDE90801AE48006803F0A4FFCDE906015D
:10033000DDE9082303F0AAFD82460022AC4B03F05E
:10034000A5FDCDE90A0103F049FD0546B5F5617F3C
:1003500003D215B14FF4617505E040F68C2085425B
:1003600001D94FF46165C5F56160A44941F82400E5
:1003700051F82410984A106800EBD07204EB620226
:100380009F4B43F82210641C9349086800EBD0711E
:10039000B4EB610FAADB0FE04FF46160974941F8BD
:1003A000240001468C4A106800EBD072A4EB620274
:1003B000934B43F82210641C874800688442EBDBAF
:1003C0000120904908700DB0BDE8F08F10B50121F3
:1003D0008D4801F032FB78B104218C4801F02DFBEF
:1003E00050B11021894801F028FB28B140218748ED
:1003F00001F023FB00287BD10A2001F0E0F8012165
:10040000814801F01AFB78B10421804801F015FB06
:1004100050B110217D4801F010FB28B140217B48EC
:1004200001F00BFB0028E6D15421794801F01FFBB5
:100430000121774801F01DFB0121734801F0FDFA0D
:1004400040B900BF0121704801F0F7FA0028F9D047
:10045000012010BD04216D4801F0EFFA40B900BF42
:1004600004216A4801F0E9FA0028F9D00220F0E7F7
:100470001021664801F0E1FA40B900BF102163483D
:1004800001F0DBFA0028F9D00320E2E740215F48C1
:1004900001F0D3FA40B900BF40215C4801F0CDFA29
:1004A0000028F9D00420D4E70121594801F0DFFAEF
:1004B0000421574801F0DDFA0121534801F0BDFA4B
:1004C00040B900BF0121504801F0B7FA0028F9D027
:1004D0000520BEE704214D4801F0AFFA48B900BF3E
:1004E00004214A4801F0A9FA0028F9D00620B0E713
:1004F000C1E01021454801F0A0FA40B900BF102129
:10050000424801F09AFA0028F9D00720A1E74021DB
:100510003E4801F092FA40B900BF40213B4801F04B
:100520008CFA0028F9D0082093E70421384801F01C
:100530009EFA1021364801F09CFA0121324801F060
:100540007CFA40B900BF01212F4801F076FA00285B
:10055000F9D009207DE704212C4801F06EFA40B95A
:1005600000BF0421294801F068FA0028F9D00A20C8
:100570006FE71021254801F060FA40B900BF102153
:10058000224801F05AFA0028F9D00B2061E74021F7
:100590001E4801F052FA40B900BF40211B4801F04B
:1005A0004CFA0028F9D00C2053E71021184801F02C
:1005B0005EFA4021164801F05CFA0121124801F070
:1005C0003CFA38BB00BF01210F4801F036FA002881
:1005D000F9D020E000409C45040000200000964334
:1005E0000C00002010000020F1D4C853FB2119405A
:1005F0000020AC4090060020101300205000002086
:10060000D00C002011000020001001400018014013
:10061000001C014001E00D201BE70421BF4801F050
:100620000CFA40B900BF0421BC4801F006FA0028CA
:10063000F9D00E200DE71021B84801F0FEF940B9BD
:1006400000BF1021B54801F0F8F90028F9D00F20BB
:10065000FFE64021B14801F0F0F940B900BF402168
:10066000AE4801F0EAF90028F9D01020F1E6402167
:10067000AB4801F0FCF90020EBE608B50121D020E1
:1006800001F004FC5520ADF8000010208DF80300A7
:1006900002208DF802006946A14801F03BF9542080
:1006A000ADF8000048208DF8030002208DF802000C
:1006B00069469A4801F02EF90120ADF80000482063
:1006C0008DF8030002208DF802006946954801F07C
:1006D00021F95521924801F0CCF908BD4FF00009ED
:1006E00000F038FAFFF7C9FF00F02CFF00F02EFDF4
:1006F0004FF4A06001F040F8022000F0F4FA00246A
:100700000EE04FF46160884941F82400874941F8C0
:100710002400874941F82400864941F82400641CDC
:10072000B4F5C87FEDDB8448016884480068FFF7B2
:100730004DFD0121824802F03DF883E0002000F0E9
:1007400023FA8146B9F1000F23D0B9F1010F09D086
:10075000B9F1020F07D0B9F1030F0ED0B9F1040FB0
:1007600016D10BE014E00021754802F02FF80022AA
:100770000121734802F039F80AE009E001217048CC
:1007800002F024F8012211466D4802F02EF800BF55
:1007900000BFFFF71BFE00F0FF09B9F1000F4ED0BC
:1007A000B9F10D0F09D0B9F10E0F1FD0B9F10F0F2C
:1007B0002BD0B9F1100F3AD133E06048006803F054
:1007C00059FD074600225F4B03F06AFC054603F023
:1007D0009BF85A49086000215848006803F078FEE9
:1007E00003D84FF07C505549086020E0534800681A
:1007F00003F040FD05460022524B03F0B7F80746D0
:1008000003F082F84D49086011E04B480068401F32
:100810004949086008460068002801DC0A20086091
:1008200005E045480068401D4349086000BF00BF1F
:100830004148016841480068FFF7C8FC02E00A200F
:1008400000F0BDFE7AE710B501213D4802F07BFAC9
:1008500000285DD03C4800683C49096888420EDBAE
:100860000020394908603A480078012807D1394802
:100870000078C04337490870002035490870354872
:10088000007800BB29483049096830F821002C491C
:100890003431088025482C49096830F8210028495E
:1008A0003831088023482849096830F82100244954
:1008B0003C3108801F482449096830F8210020494C
:1008C000403108801FE018481F49096830F82100AE
:1008D0001B493431088014481B49096830F821004D
:1008E00017493831088012481749096830F8210043
:1008F00013493C3108800E481349096830F821003B
:100900000F494031088010480068401C0E490860BB
:1009100001210B4802F028FA10BD00000018014028
:10092000001C0140001001409006002050000020F3
:1009300010130020D00C0020080000200000002030
:10094000002C01400000E03F1400002004000020C3
:100950001100002010000020704700BFFEE700BF1C
:10096000FEE700BFFEE700BFFEE770477047704735
:10097000704700000CB50020019000906C480068A2
:1009800040F480306A49086000BF6948006800F49C
:10099000003000900198401C0190009818B901980F
:1009A000B0F5A06FF1D16248006800F4003010B1DA
:1009B0000120009001E0002000900098012843D120
:1009C0005C48006840F010005A490860084600681A
:1009D00020F0030008600846006840F0020008604C
:1009E0005348406852494860084640684860084695
:1009F000406840F4806048600846406820F47C10FD
:100A000048600846406840F4E810486008460068BE
:100A100040F08070086000BF4548006800F000703A
:100A20000028F9D04248406820F00300404948605F
:100A30000846406840F00200486000BF3C484068FB
:100A400000F00C000828F9D10CBD10B5FFF792FF9B
:100A500010BD10B53648006840F001003449086008
:100A600008464068344908403149486008460068F3
:100A7000324908402E4908600846006820F480206A
:100A800008600846406820F4FE0048604FF41F00EC
:100A90008860FFF7DAFF4FF000602949086010BD59
:100AA00010B5002100200022214B5B6803F00C01EF
:100AB00021B1042906D0082928D107E0214B224C76
:100AC000236027E01F4B204C236023E0184B5B681A
:100AD00003F47010164B5B6803F48032022303EBBF
:100AE000904022B9194B4343174C23600DE0104B43
:100AF0005B6803F4003323B1144B4343124C23606F
:100B000003E0104B4343104C236003E00D4B0E4CAD
:100B1000236000BF00BF064B5B68C3F303130C4C9C
:100B2000E15C094B1B68CB40074C236010BD000003
:100B300000100240002002400000FFF8FFFFF6FE18
:100B400008ED00E000127A001800002000093D00C6
:100B50001C00002008B50121442001F097F908206D
:100B6000ADF8000048208DF803006946234800F0E6
:100B7000D1FE0120ADF8000028208DF80300694661
:100B80001F4800F0C7FE08BD10B5044614B101208F
:100B90001C4908701B480078F8B10821174800F07C
:100BA0004CFF28B10121164800F047FF012814D15D
:100BB0000A2000F004FD00201249087008210F48A7
:100BC00000F03BFF08B9022010BD01210C4800F0E5
:100BD00034FF01280FD10420F6E70821074800F070
:100BE0002CFF012807D10121054800F026FF10B98C
:100BF0000120044908700020E6E7000000180140C9
:100C0000000801402C0000207FB505460C4601215C
:100C1000022001F048F9ADF80850ADF8044000207A
:100C2000ADF80A00ADF8060001A9E94801F066FA3E
:100C300001221146E64801F0D8FD1D208DF8000084
:100C400000208DF8010003208DF8020001208DF8AE
:100C50000300684600F095FD0121DD4801F0AAFD82
:100C60007FBD30B589B005460C460121022001F058
:100C70001AF90121092001F009F90121D54800F0F4
:100C80001AFF2020ADF8200018208DF82300032043
:100C90008DF8220008A9D04800F03CFEADF81850AD
:100CA000ADF814400020ADF81A00ADF8160005A903
:100CB000C74801F023FA7020ADF804000120ADF818
:100CC00006000020ADF80C0001A9C14801F095FA1A
:100CD0000821BF4801F0A7FE0121BD4801F06AFDCF
:100CE00009B030BD704710B58AB004460121C80272
:100CF00001F0CCF840F60F60ADF81C00601E80B229
:100D0000ADF818000020ADF81E002020ADF81A0044
:100D100001208DF8200006A9B04801F0EFF9192054
:100D20008DF8040000208DF8050003208DF80600E2
:100D300001208DF8070001A800F023FD0121042007
:100D400001F0A4F84FF47060ADF8240018208DF87D
:100D5000270002208DF8260009A9A14800F0DAFD3D
:100D60007020ADF808000120ADF80A000020ADF8B1
:100D700010004FF46160ADF80E0002A9974801F031
:100D8000FAF902A9954801F038FA02A9934801F04E
:100D900081FA02A9914801F0C8FA08218F4801F0B0
:100DA00039FE08218D4801F03EFE08218B4801F0F4
:100DB00047FE0821894801F04CFE0121874801F0D7
:100DC000F9FD0021854801F0F5FC0121834801F07F
:100DD000FDFC0AB010BD00B58DB00121480301F043
:100DE00055F844F61F60ADF828004720ADF8240000
:100DF0000020ADF82A00ADF826008DF82C0009A9D6
:100E0000784801F07BF90121182001F03FF84FF4F8
:100E10008070ADF8300018208DF8330003208DF875
:100E200032000CA9704800F075FD0220ADF83000CA
:100E300018208DF8330003208DF832000CA9664885
:100E400000F068FD7020ADF814000120ADF8160028
:100E50000020ADF81C0042F21070ADF81A0004201A
:100E6000ADF818000020ADF81E004FF48070ADF80A
:100E700020000020ADF8220005A95A4801F00AFA26
:100E80000021584801F0DCFD4FF40060ADF804008B
:100E90004010ADF806008010ADF80800CD20ADF888
:100EA0000A000020ADF80C004FF40050ADF80E0021
:100EB0004000ADF8100001A94A4801F03BFC0121B7
:100EC000484801F077FD0021464801F073FC0121FC
:100ED000444801F07BFC0DB000BD10B580213F48B7
:100EE00001F0F3FE10213D4801F0DDFE06213D48F2
:100EF00001F0E2FE00213B4801F096FC10BD08B570
:100F00000121882000F0C2FF0120ADF80000102070
:100F10008DF8030003208DF8020069462E4800F08A
:100F2000F9FC8020ADF800006946304800F0F2FC82
:100F30004FF48070ADF8000069462C4800F0EAFCE0
:100F40000121254800F093FD4FF4C071274800F0BF
:100F50008EFD08BD08B54FF4E06000F00DFC1C20CC
:100F60008DF8000000208DF8010003208DF80200AC
:100F700001208DF80300684600F003FC08BD0EB5A3
:100F80000121084600F08FFF4FF47A70ADF804009D
:100F90004720ADF800000020ADF80600ADF80200D3
:100FA00069464FF0804001F0A9F80121880701F05F
:100FB000C7FE01221146900701F017FC01218807A6
:100FC00001F0F8FB0021012000F06DFF0EBD0000D4
:100FD0000004004000081A00000C0140002C0140F1
:100FE000000801400034014000100140001C014095
:100FF000012800DA0120002107E0002200E0521C55
:1010000040F6A6739A42FADB491C8142F5DB704731
:1010100008210122F94B1A600022F94BC3F8B021D4
:1010200013E000F080021AB10122F64B1A6002E0D0
:101030000022F44B1A600122F24B083B1A60002296
:10104000EF4BC3F8B0214206100E0A00A1F10103D4
:10105000D9B2E6D1704708210022E84B1A60E84B6C
:10106000C3F8B02113E000F080021AB10122E54B71
:101070001A6002E00022E34B1A600122E14B083BB8
:101080001A600022DE4BC3F8B0214206100E0A009F
:10109000A1F10103D9B2E6D1704730B504460D463F
:1010A00005F1B001C8B2FFF7D6FF102141EA1410D4
:1010B000FFF7D1FF04F00F0141F00100FFF7CBFF74
:1010C00030BD70B50646002415E004F1B001C8B289
:1010D000FFF7C1FF0120FFF7BEFF1020FFF7BBFFA6
:1010E000002504E03046FFF793FF681CC5B2802D51
:1010F000F8DB601CC4B2082CE7DB70BD30B50024FF
:1011000015E004F1B001C8B2FFF7A5FF0120FFF719
:10111000A2FF1020FFF79FFF002504E00020FFF74B
:1011200077FF681CC5B2802DF8DB601CC4B2082CA8
:10113000E7DB30BD07E040F2375100BF0A00A1F104
:101140000101FBD1401E0028F5D1704708B50121EF
:101150004FF4C47000F09AFE4FF4A040ADF80000C8
:1011600010208DF8030002208DF802006946A64881
:1011700000F0D0FB0120ADF800006946A34800F064
:10118000C9FB4FF40050ADF800006946A04800F0DC
:10119000C1FB01209B490839086000209D49C1F826
:1011A00080013220FFF7C6FF01209B490860AE2076
:1011B000FFF751FF0020FFF74EFF1020FFF74BFF16
:1011C0004020FFF748FF8120FFF745FFCF20FFF7C2
:1011D00042FFA120FFF73FFFC120FFF73CFFA62001
:1011E000FFF739FFA820FFF736FF3F20FFF733FF57
:1011F000D320FFF730FF0020FFF72DFFD520FFF7AA
:101200002AFF8020FFF727FFD920FFF724FFF120D6
:10121000FFF721FFDA20FFF71EFF1220FFF71BFF69
:10122000DB20FFF718FF4020FFF715FF2020FFF716
:1012300012FF0220FFF70FFF8D20FFF70CFF142095
:10124000FFF709FFA420FFF706FFA620FFF703FF23
:10125000AF20FFF700FF0020FFF733FF0021084613
:10126000FFF71BFF08BD2DE9F043044688461546ED
:101270004FF000090026002720E0E85D203800F04C
:10128000FF097E2C04DD002408F1010000F0FF08B6
:1012900041462046FFF701FF002609E009EB49011E
:1012A0005E4A02EB4101885DFFF7B2FE701CC6B2D8
:1012B000062EF3DBA01DC4B2781CC7B2E85D00287F
:1012C000DBD1BDE8F0832DE9F04306460F4690469A
:1012D00000250024A14631E018F809002038C5B2E5
:1012E000782E02DD0026781CC7B239463046FFF75B
:1012F000D4FE002407E004EB0511494A505CFFF7D7
:1013000087FE601CC4B2082CF5DB781CC1B23046E5
:10131000FFF7C3FE002408E004EB05110831404A42
:10132000505CFFF775FE601CC4B2082CF4DB06F1BC
:101330000800C6B209F1010000F0FF0918F8090021
:101340000028C9D1BDE8F0832DE9F04381460F465E
:10135000904600240026012583E00024012513E0A7
:101360003048005D18F8061088420BD12D49601CEA
:10137000095C701C18F80000814203D1C4EBC40062
:10138000450005E0A01CC4B22648005D7F28E7DCCC
:1013900000BFB9F1760F03DD4FF00009781CC7B22A
:1013A00039464846FFF779FE012D1FD03946484699
:1013B000FFF773FE002406E01B49485DFFF728FE97
:1013C0006D1C601CC4B20E2CF6DB781CC1B2484602
:1013D000FFF763FE002406E01349485DFFF718FE9F
:1013E0006D1C601CC4B20E2CF6DB34E0701CC6B25F
:1013F00039464846FFF751FE00241CE0B4812142E3
:1014000000802342B8812342001C0140002001409B
:10141000000C01400000244280012442BE46000826
:10142000D7490008E6480008F74800080020FFF701
:10143000EFFD601CC4B2102CF8DB781CC1B248462A
:10144000FFF72BFE002404E00020FFF7E1FD601C05
:10145000C4B2102CF8DB09F10E0000F0FF09B01C3B
:10146000C6B218F8060000287FF477AFBDE8F08315
:10147000F8B506460F461546002427E0285D7F286C
:1014800014DD285D8DF80000601C285C8DF80100DB
:1014900000208DF802006A4639463046FFF754FFB7
:1014A00006F10E00C6B2A01CC4B20FE0285D8DF894
:1014B000000000208DF801006A4639463046FFF7EB
:1014C00002FF06F10800C6B2601CC4B2285D002805
:1014D000D4D1F8BD70B505460C462046E11704EBA3
:1014E0005171C910A4EBC10201219140CEB2B021CB
:1014F00001EBE401C8B2FFF7AEFD102141EA15107F
:10150000FFF7A9FD05F00F00FFF7A5FD3046FFF737
:101510007FFD70BD70B504460D46FF26B02101EB7E
:10152000E501C8B2FFF797FD102141EA1410FFF75B
:1015300092FD04F00F00FFF78EFD3046FFF768FDC7
:1015400070BD000010B56FF0040000F064F92E4883
:1015500000682E49B0FBF1F02D490870084600786C
:1015600000EB4001C1EBC0104FF6FF7101EAC00073
:101570002849088010BD0146254A12784A434FF099
:10158000E0235A6100229A611A46126942F0010270
:101590001A6100BF4FF0E022106900F001021AB199
:1015A00000F48032002AF5D04FF0E022126922F0D8
:1015B00001024FF0E0231A6100229A617047014650
:1015C000144A12884A434FF0E0235A6100229A617C
:1015D0001A46126942F001021A6100BF4FF0E02280
:1015E000106900F001021AB100F48032002AF5D02F
:1015F0004FF0E022126922F001024FF0E0231A615D
:1016000000229A61704700001800002000127A0042
:101610002E00002030000020014600BF704700BFB0
:10162000414A128802F04002002AF9D0C2B23E4B71
:101630001B1D1A80704710B586B00446012144F284
:10164000040000F023FC4FF40070ADF814000320F8
:101650008DF8160018208DF8170005A9334800F002
:1016600059F925208DF8000003208DF801008DF830
:10167000020001208DF80300684600F082F8019412
:101680000020ADF80800ADF80A00ADF80C00ADF888
:1016900010000C20ADF80E0001A9234801F0ABFBAF
:1016A0000121214801F033FC06B010BD10B540F215
:1016B00025511D4801F01CFD10B31B4801F098FC9A
:1016C000C4B21B48008800F40040C8B9184800881C
:1016D00000F4804060B10A2C03D000201449088037
:1016E00020E01348008840F400401149088019E0C8
:1016F0000D2C06D10E48008840F480400C4908802B
:1017000010E00B480088C0F30D000A490C5408484B
:101710000088401C0649088008460088C72801DD6B
:101720000020088010BD0000003801400008014082
:101730003800002050190020094880470948004718
:10174000FEE7FEE7FEE7FEE7FEE7FEE7FEE7FEE771
:10175000FEE7FEE704480549054A064B70470000CE
:10176000530A000831010008781A00207820002070
:10177000781C0020781C002031490143314A116057
:10178000704770B5002100230F22C47804B32D4C9C
:10179000246804F4E064C4F5E064210AC1F10403A0
:1017A000CA40447804FA03F18478144021430901C3
:1017B000254C0678A155047804F01F050124AC409F
:1017C00005786D11AD0005F1E025C5F8004109E08F
:1017D000047804F01F050124AC401C4D06787611F6
:1017E00045F8264070BD1A4A0A400243154B1B1F9C
:1017F0001A60704739B1134A121D12680243114B27
:101800001B1D1A6006E00F4A121D126882430D4B21
:101810001B1D1A607047042808D14FF0E0210969A8
:1018200041F004014FF0E022116107E04FF0E021A8
:10183000096921F004014FF0E022116170470000B6
:101840000000FA050CED00E000E400E080E100E0BB
:1018500080FFFF1F10B50446CC48844208D1012107
:10186000042000F02DFB0021042000F029FB46E0BD
:10187000C748844208D10121082000F021FB002143
:10188000082000F01DFB3AE0C248844208D1012143
:10189000102000F015FB0021102000F011FB2EE0BD
:1018A000BD48844208D10121202000F009FB00211D
:1018B000202000F005FB22E0B848844208D1012135
:1018C000402000F0FDFA0021402000F0F9FA16E077
:1018D000B348844208D10121802000F0F1FA0021B0
:1018E000802000F0EDFA0AE0AE48844207D10121E1
:1018F000801500F0E5FA0021A01500F0E1FA10BD16
:1019000010B50121084600F0DBFA0021012000F0AB
:10191000D7FA10BD2DE9F04102460025002600202F
:1019200000230024002791F803C00CF00F0591F864
:1019300003C00CF0100CBCF1000F03D091F802C0F2
:101940004CEA050591F800C0BCF1000F31D01468D5
:1019500000202BE04FF0010C0CFA00F3B1F800C0AE
:101960000CEA03069E4220D183004FF00F0C0CFAC4
:1019700003F7BC4305FA03FC4CEA040491F803C0E6
:10198000BCF1280F06D14FF0010C0CFA00FCC2F894
:1019900014C00AE091F803C0BCF1480F05D14FF024
:1019A000010C0CFA00FCC2F810C0401C0828D1D36E
:1019B0001460B1F800C0BCF1FF0F34DD54680020A2
:1019C0002EE000F1080C4FF0010808FA0CF3B1F812
:1019D00000C00CEA03069E4221D183004FF00F0C99
:1019E0000CFA03F7BC4305FA03FC4CEA040491F833
:1019F00003C0BCF1280F05D100F1080C08FA0CF85F
:101A0000C2F8148091F803C0BCF1480F07D100F16F
:101A1000080C4FF0010808FA0CF8C2F81080401CBE
:101A20000828CED35460BDE8F0814FF6FF710180E5
:101A3000022181700421C170704702460020936822
:101A40000B400BB1012000E0002070470146886880
:101A500080B2704702460020D3680B400BB10120D2
:101A600000E0002070470146C86880B270470161FD
:101A70007047416170470AB1016100E04161704700
:101A8000C16070474FF480320A4382618161826194
:101A900082698269704702460020434B18684FF6FE
:101AA0008073184040EA021008433F4B18607047AB
:101AB0003E49C8617047F0B50A4600230024002162
:101AC000002500F00046B6F1004F02D1364EF16914
:101AD00001E0354E7168C0F3034583B200F440164F
:101AE000B6F5401F08D121F070612F4E766826F0C0
:101AF00070662D4F7E6012E000F48016B6F5801FF0
:101B000006D1032606FA05F4A14341F0706106E010
:101B1000460D360103FA06F6B14341F0706122B179
:101B2000460D360103FA06F6314300F00046B6F1E1
:101B3000004F02D11C4EF16101E01B4E7160F0BDFF
:101B400030B500228B071C0F0F2303FA04F2164B4B
:101B500008338C1053F824309343134C08348D1001
:101B600044F8253023468C1053F824308C07240F7A
:101B700000FA04F423430C4C08348D1044F825304B
:101B800030BD0A49DC3108607047000000080140A0
:101B9000000C0140001001400014014000180140F9
:101BA000001C0140002001400000014000002042D4
:101BB000DF48006840F00100DD49086008464068E1
:101BC000DC490840DA49486008460068DA490840BC
:101BD000D74908600846006820F48020086008465D
:101BE000406820F4FE0048604FF41F008860704792
:101BF000CF49096821F48031CD4A11601146096846
:101C000021F480211160B0F5803F03D0B0F5802F22
:101C10000ED106E0C649096841F48031C44A11601A
:101C200007E0C349096841F4A021C14A116000E0FE
:101C300000BF00BF704710B50146002200230020FE
:101C40004A11012A02D1BA4C236806E0022A02D1C5
:101C5000B74C236A01E0B64C636A01F01F0201240D
:101C600094401C400CB1012000E0002010BD38B5AC
:101C7000002000900024002500BF3120FFF7DBFF8B
:101C800005460098401C00900098B0F5A06F01D068
:101C9000002DF2D03120FFF7CEFF08B1012400E083
:101CA0000024204638BD01460020A14A106820F0DB
:101CB000F80040EAC10010607047A0490860704712
:101CC000024600209A4B586820F47C1042EA010337
:101CD0001843974B5860704798490866704701460B
:101CE0000020934A506820F003000843506070477A
:101CF0008F48406800F00C007047014600208C4A75
:101D0000506820F0F0000843506070470146002002
:101D1000874A506820F4E0600843506070470146ED
:101D20000020834A506820F4605040EAC1005060AF
:101D3000704729B17E4A527A02437D4B5A7204E0C1
:101D40007B4A527A82437A4B5A7270477B49D83128
:101D50000860704701460020754A506820F44040F2
:101D60000843506070470021714A20321170704A58
:101D700082F82010012802D004280AD104E00121B1
:101D80006B4A2032117005E00521694A203211703A
:101D900000E000BF00BF70476949086070476449B0
:101DA000096A0143624A1162704765494439086013
:101DB000704730B500210022002400235C4D6D687F
:101DC00005F00C0121B1042905D0082923D105E033
:101DD0005C4D056022E05B4D05601FE0544D6D6871
:101DE00005F47012524D6D6805F48034022505EB40
:101DF00092421CB9544D554305600BE04C4D6D6843
:101E000005F400351DB1504D5543056002E04D4DC0
:101E10005543056002E04B4D056000BF00BF444DD7
:101E20006D6805F0F0010909484D6B5C0568DD40FF
:101E300045603F4D6D6805F4E061090A434D6B5CF8
:101E40004568DD4085603A4D6D6805F46051C90A0A
:101E50003E4D6B5C4568DD40C560354D6D6805F4F1
:101E60004041890B3A4D6B5CC568B5FBF3F50561E4
:101E700030BD29B12E4A526902432D4B5A6104E00C
:101E80002B4A526982432A4B5A61704729B1284A2A
:101E900092690243264B9A6104E0254A9269824383
:101EA000234B9A61704729B1214AD2690243204BE2
:101EB000DA6104E01E4AD26982431D4BDA61704741
:101EC00029B11B4AD2680243194BDA6004E0184A70
:101ED000D2688243164BDA60704729B1144A1269FE
:101EE0000243134B1A6104E0114A12698243104BFA
:101EF0001A61704712494039086070470F49C86439
:101F000070470B49C87170470948406A40F08070BB
:101F100007494862704701460020054A92680A4016
:101F20000AB1012000E00020704701498872704723
:101F3000001002400000FFF8FFFFF6FE00004242E2
:101F40008004424200127A0000093D003A0000205D
:101F50004A00002010B50446FE48844208D1012101
:101F6000C014FFF7ADFF0021E014FFF7A9FFC4E0A4
:101F7000B4F1804F08D101210846FFF7AEFF0021E0
:101F80000120FFF7AAFFB8E0F348844208D10121FD
:101F90000220FFF7A2FF00210220FFF79EFFACE026
:101FA000EE48844208D101210420FFF796FF00216A
:101FB0000420FFF792FFA0E0E948844208D1012104
:101FC0000820FFF78AFF00210820FFF786FF94E032
:101FD000E448844208D101211020FFF77EFF002150
:101FE0001020FFF77AFF88E0DF48844208D1012102
:101FF0002020FFF772FF00212020FFF76EFF7CE01A
:10200000DA48844208D101214014FFF759FF00212A
:102010006014FFF755FF70E0D548844209D10121D3
:10202000C804FFF74DFF00214FF40020FFF748FFE1
:1020300063E0D048844209D101210805FFF740FF41
:1020400000214FF48010FFF73BFF56E0CA4884425E
:1020500009D101214805FFF733FF00214FF400109B
:10206000FFF72EFF49E0C548844208D101214020F6
:10207000FFF733FF00214020FFF72FFF3DE0C0486E
:10208000844208D101218020FFF727FF0021802012
:10209000FFF723FF31E0BB48844208D101218015BE
:1020A000FFF71BFF0021A015FFF717FF25E0B6483B
:1020B000844209D101210804FFF702FF00214FF4F7
:1020C0008030FFF7FDFE18E0B048844209D10121BD
:1020D0004804FFF7F5FE00214FF40030FFF7F0FE53
:1020E0000BE0AB48844208D101218804FFF7E8FEE9
:1020F00000214FF48020FFF7E3FE10BD002202888C
:10210000944B98420ED0994B98420BD0B0F1804F2F
:1021100008D0914B984205D0904B984202D0904BFA
:10212000984204D14FF68F731A404B881A438D4B57
:10213000984207D08C4B984204D04FF6FF431A4088
:10214000CB881A4302808B8883850B880385814B5B
:1021500098420BD0854B984208D08B4B984205D0C3
:102160008A4B984202D08A4B984201D10B7A03865F
:1021700001238382704770B5002400220023058C60
:102180004FF6FE7635400584028C8388048B4FF62B
:102190008F752C40B51E2C400D882C43751E2A408F
:1021A0000D892A434D882A436A4DA8420BD06F4DB2
:1021B000A84208D0744DA84205D0744DA84202D060
:1021C000734DA84213D14FF6F7752A404D892A4323
:1021D0004FF6FB752A408D882A434FF6FF652B404A
:1021E0004FF6FF552B408D892B43CD892B438380A0
:1021F0000483CD888586028470BD70B500240022DA
:102200000023058C4FF6EF7635400584028C8388D9
:10221000048B48F6FF752C404FF6FF452C400D8887
:102220004FF6FF7606EA05252C434FF6DF752A4068
:102230000D8906EA05152A434D8806EA05152A4345
:10224000444DA84202D0494DA8421DD14FF67F759A
:102250002A404D894FF6FF7606EA05152A434FF6C8
:10226000BF752A408D8806EA05152A434FF6FF35CB
:102270002B404FF2FF752B408D8906EA85052B43D5
:10228000CD8906EA85052B4383800483CD880587A5
:10229000028470BD70B5002400220023058C4FF627
:1022A000FF6635400584028C8388848B4FF68F75DA
:1022B0002C404FF6FC752C400D882C434FF6FF55F3
:1022C0002A400D894FF6FF7606EA05252A434D88F8
:1022D00006EA05252A431F4DA84202D0234DA842F5
:1022E0001DD14FF2FF752A404D894FF6FF7606EA61
:1022F00005252A434FF6FF352A408D8806EA052535
:102300002A434EF6FF752B404DF6FF752B408D8905
:1023100006EA05152B43CD8906EA05152B43838074
:102320008483CD888587028470BD70B50022002328
:102330000024058C4EF6FF7635400584038C848896
:10234000828B48F6FF752A404FF6FF452A400D88DC
:1023500020E00000002C0140000400400008004084
:10236000000C004000100040001400400034014008
:10237000004C014000500140005401400018004052
:10238000001C00400020004000400140004401408B
:10239000004801404FF6FF7606EA05252A434DF630
:1023A000FF752B400D8906EA05352B434D8806EA5B
:1023B00005352B43FA4DA84202D0FA4DA84208D168
:1023C0004BF6FF752C408D894FF6FF7606EA851592
:1023D0002C4384808283CD88A0F84050038470BD54
:1023E000828B4FF2FF331A408283828B4FF6FF734A
:1023F00003EA01231A4382837047F0B50C46154661
:10240000002200210026078C4EF6FF7C07EA0C070D
:102410000784828B018C4FF6FF7707EA043640F67B
:10242000FF473A404FF6FF7707EA05273A434FF652
:10243000FF7707EA03373A43D94FB8420ED0D94F56
:10244000B8420BD0B0F1804F08D0D74FB84205D07A
:10245000D64FB84202D0D64FB84206D14DF6FF77DC
:10246000394046F48057394305E047F6FF57394075
:1024700044F48057394382830184F0BD828B4FF648
:10248000F3731A408283828B0A4382837047F0B5CC
:102490000C461546002200210026078C4FF6FF6CE3
:1024A00007EA0C070784828B018C4FF6FF7707EA57
:1024B00004264FF60C773A404FF6FF7707EA0317EA
:1024C0002F433A43B64FB8420ED0B64FB8420BD066
:1024D000B0F1804F08D0B44FB84205D0B34FB842E6
:1024E00002D0B34FB84206D14FF6FF57394046F4F9
:1024F0008077394305E04FF2FF57394044F4807745
:10250000394382830184F0BD028B4FF2FF331A40BE
:102510000283028B4FF6FF7303EA01231A430283FF
:102520007047F0B50C461546002200210026078CA6
:102530004FF6EF7C07EA0C070784028B018C4FF6FD
:10254000FF7707EA041640F6FF473A404FF6FF7759
:1025500007EA03373A434FF6FF7707EA05273A437E
:102560008F4FB8420ED08F4FB8420BD0B0F1804F92
:1025700008D08D4FB84205D08C4FB84202D08C4F56
:10258000B84206D14FF6DF77394046F0100739439D
:1025900005E04FF65F77394044F010073943028376
:1025A0000184F0BD028B4FF6F3731A400283028B55
:1025B0000A4302837047F0B50C46154600220021FD
:1025C000068C4FF6FE773E400684028B018C4FF658
:1025D0000C7632407E1C06EA03162E433243704EC0
:1025E000B0420ED06F4EB0420BD0B0F1804F08D049
:1025F0006D4EB04205D06D4EB04202D06C4EB0422E
:1026000006D14FF6FD76314044F00106314305E036
:102610004FF6F576314044F00106314302830184E0
:10262000F0BD70B505460C465D4885420ED05D484C
:1026300085420BD0B5F1804F08D05B48854205D06C
:102640005A48854202D05A48854200D100E000BF76
:10265000208850B92389A28861882846FFF7ABFFFC
:10266000E1882846FFF79EFF25E0208804280AD14C
:102670002389A28861882846FFF753FFE18828460E
:10268000FFF742FF17E0208808280AD12389A28893
:1026900061882846FFF7FBFEE1882846FFF7EEFE3B
:1026A00009E02389A28861882846FFF7A6FEE18811
:1026B0002846FFF795FE70BD2DE9F04105460C4612
:1026C00000260127608808B9022600E00026A088BD
:1026D000012801D1022700E001272088A0B9238921
:1026E000A28861882846FFF766FFE1882846FFF741
:1026F00059FF23893A4631462846FFF712FFE18801
:102700002846FFF701FF13E02389A2886188284645
:10271000FFF707FFE1882846FFF7F6FE23893A46D0
:1027200031462846FFF747FFE1882846FFF73AFF82
:10273000BDE8F0810A884B881A438B881A43CB88FE
:102740001A430B891A434B891A438B891A43A0F801
:10275000442070474FF6FF71818000210180C180C5
:102760004180017270470021018041808180C180D9
:10277000018141818181C1817047002101804180B7
:10278000012181800021C1800181704700210180E9
:1027900041808180C1800181418181817047000039
:1027A000002C0140003401400004004000080040BB
:1027B000000C004021B1028842F00102028004E0D6
:1027C00002884FF6FE731A400280704731B1B0F8AC
:1027D000442042F40042A0F8442005E0B0F8442030
:1027E000C2F30E02A0F8442070471AB183890B434C
:1027F000838102E083898B438381704781827047A4
:1028000041EA0203A0F8483070471AB183890B43AC
:10281000838102E083898B438381704701894FF66E
:10282000F8721140018170470A46002101894FF674
:102830008F73194011430181704730B504460D462E
:1028400029462046FFF7F0FF208940F0070020814D
:1028500030BD2DE9F04104460D4616461F46602D59
:1028600006D13B46012231462046FFF75AFE05E0DD
:102870003B46012231462046FFF79DFE2946204671
:10288000FFF7D2FF208940F007002081BDE8F081EA
:1028900030B50C4600210189C9B24FF6FF7505EA33
:1028A0000325154325432943018130BD2DE9F0411E
:1028B00005460E4617469846002443463A4631469A
:1028C0002846FFF7E5FF2C894FF6F870044044F0E6
:1028D00007044FF68F70044044F070042C81BDE86B
:1028E000F081F0B504460D4616461F463B4632467B
:1028F00029462046FFF7CCFF208940F48040208104
:10290000F0BD0185828270470A46002101884FF69A
:102910008F731940114301807047F0B50C4615467E
:102920001E460021002200230189028B038C4FF6F2
:10293000F877394021434FF6FC473A4040F20117FF
:102940003A434FF6DD773B404FF6FF7707EA06172D
:102950002F433B43018102830384F0BD0A460021DB
:10296000018B4FF68F7319401143018370470A465C
:102970000021018B48F6FF7319404FF6FF7303EAFD
:1029800002231943018370470A460021818B4FF6C9
:102990008F7319401143818370470A460021818B50
:1029A00048F6FF7319404FF6FF7303EA02231943F9
:1029B0008183704721B1028842F08002028004E0E6
:1029C00002884FF67F731A400280704721B18288D7
:1029D00042F00402828004E082884FF6FB731A40C2
:1029E0008280704721B1828842F00802828004E030
:1029F00082884FF6F7731A408280704721B182882F
:102A000042F00102828004E082884FF6FE731A4091
:102A1000828070470A460021018B4FF6F7731940F8
:102A20001143018370470A460021018B4FF2FF7367
:102A300019404FF6FF7303EA0223194301837047DD
:102A40000A460021818B4FF6F773194011438183A9
:102A500070470A460021818B4FF2FF7319404FF6F1
:102A6000FF7303EA02231943818370470A4600215A
:102A7000018B4FF6FB7319401143018370470A46DF
:102A80000021018B4FF6FF3319404FF6FF7303EA25
:102A900002231943018370470A460021818B4FF6B8
:102AA000FB7319401143818370470A460021818BD3
:102AB0004FF6FF3319404FF6FF7303EA0223194321
:102AC000818370470A460021018B4FF67F731940BE
:102AD0001143018370470A460021018BC1F30E01A7
:102AE0004FF6FF7303EA02231943018370470A4636
:102AF0000021818B4FF67F7319401143818370470A
:102B00000A460021818BC1F30E014FF6FF7303EAE1
:102B100002231943818370470A460021018C4FF636
:102B2000FD7319401143018470470A460021018C4E
:102B30004FF6F77319401143018470470A4600218C
:102B4000018C4FF6DF7319404FF6FF7303EA02134F
:102B50001943018470470A460021018C4FF67F73A8
:102B600019404FF6FF7303EA0213194301847047BB
:102B70000A460021018C4FF6FF5319404FF6FF73B0
:102B800003EA02231943018470470A460021018C9D
:102B90004FF2FF7319404FF6FF7303EA0223194304
:102BA000018470470A460021018C4DF6FF731940DD
:102BB0004FF6FF7303EA023319430184704730B5BF
:102BC000002301248C40A3B2048C9C430484048C15
:102BD00002FA01F5ADB22C43048430BD30B50023B8
:102BE00004248C40A3B2048C9C430484048C02FA19
:102BF00001F5ADB22C43048430BD70B5034600200E
:102C000000241846183001258D40ACB21D8CA54318
:102C10001D8409B1082909D100EB6100056825F080
:102C2000700505600568154305600EE00D1FC5F3CE
:102C30004E052844056825F4E045056005684FF613
:102C4000FF7606EA02263543056070BD21B1028891
:102C500042F00202028004E002884FF6FD731A403F
:102C60000280704721B1028842F00402028004E031
:102C700002884FF6FB731A400280704721B18288A8
:102C800042F08002828004E082884FF67F731A400F
:102C90008280704702884FF6F7731A4002800288DC
:102CA0000A430280704782884FF68F731A408280F1
:102CB00082880A438280704702894FF6F8731A406F
:102CC000028102890A430281704702894FF67F73AD
:102CD0001A40028102890A43028170478184704749
:102CE000818570478186704701877047818770476B
:102CF000A0F84010704702884FF6FF431A40028048
:102D000002880A43028070470146888E7047014658
:102D1000088F70470146888F70470146B1F8400020
:102D200070470146888C70470146088D70470246FF
:102D30000020138A0B400BB1012000E000207047F7
:102D4000CA430282704730B50246002000230024A7
:102D5000158A05EA0103958905EA010413B10CB14E
:102D6000012000E0002030BDCA430282704700000D
:102D700010B50446FB48844209D101218803FFF7BE
:102D80009FF800214FF48040FFF79AF832E0F648B0
:102D9000844209D101214804FFF79FF800214FF434
:102DA0000030FFF79AF825E0F048844209D101216C
:102DB0008804FFF792F800214FF48020FFF78DF888
:102DC00018E0EB48844209D10121C804FFF785F8D7
:102DD00000214FF40020FFF780F80BE0E548844223
:102DE00008D101210805FFF778F800214FF4801081
:102DF000FFF773F810BD2DE9F04786B005460E4683
:102E00000024A24600BFA1460027B08900B100BF40
:102E10002F462C8A4CF6FF700440F08804432C8225
:102E2000AC894EF6F3100440B088318908437189AB
:102E300008430443AC81AC8A4FF6FF400440B0899C
:102E40000443AC8201A8FEF7B4FFC648874202D112
:102E5000DDF810A001E0DDF80CA0A88900F4004026
:102E600040B10AEBCA0000EB0A1031684900B0FB20
:102E7000F1F807E00AEBCA0000EB0A10316889009C
:102E8000B0FBF1F86420B8FBF0F0040120096421E4
:102E900001FB1089A88900F4004040B1322000EB0A
:102EA000C900B0FBF1F000F00700044308E0322055
:102EB00000EB09106421B0FBF1F000F00F000443B7
:102EC0002C8106B0BDE8F0874FF416510160002157
:102ED0008180C18001810C21418100218181704765
:102EE00010B502460020108A4FF2FF0318400B88ED
:102EF0004C8823438C882343CC8823431843108277
:102F000010BD0021018041808180C180704721B1C6
:102F1000828942F40052828104E082894DF6FF7377
:102F20001A4082817047F0B5034600240026002530
:102F3000002040F66A17B94200D100BF1846C1F31D
:102F4000421401F01F06012707FA06F5012C01D1F2
:102F50000C3004E0022C01D1103000E014301AB122
:102F600007682F43076002E00768AF430760F0BDC2
:102F70001AB1838A0B43838202E0838A8B43838264
:102F80007047028A4FF6F0731A400282028A0A439F
:102F90000282704782894FF2FF731A4082818289D0
:102FA0000A438281704721B1828942F00202828104
:102FB00004E082894FF6FD731A4082817047028ACD
:102FC0004FF6DF731A400282028A0A430282704778
:102FD00021B1028A42F48042028204E0028A4BF666
:102FE000FF731A4002827047C1F308028280704763
:102FF00001468888C0F308007047818941F00101CB
:1030000081817047028BD2B20283028B42EA012295
:1030100002837047028B02F47F420283028B0A43D1
:103020000283704721B1828A42F02002828204E04A
:10303000828A4FF6DF731A408282704721B1828AFA
:1030400042F01002828204E0828A4FF6EF731A4047
:103050008282704721B1828A42F00802828204E0B3
:10306000828A4FF6F7731A408282704721B18289B3
:1030700042F40042828103E08289C2F30E0282811F
:10308000704721B1828A42F40062828204E0828A1F
:103090004FF2FF731A4082827047828A4FF6FB73A9
:1030A0001A408282828A0A438282704721B1828AD0
:1030B00042F00202828204E0828A4FF6FD731A40D7
:1030C0008282704702460020B1F5007F00D100BF28
:1030D00013880B400BB1012000E00020704701F481
:1030E0000072B2F5007F00D100BFCA430280704772
:1030F00070B50246002400230025002040F66A1621
:10310000B14200D100BFC1F3421501F01F030126F7
:1031100006FA03F3012D02D19689334006E0022D11
:1031200002D1168A334001E0968A33400C12012600
:1031300006FA04F41688344013B10CB1012000E003
:10314000002070BD10B50022002340F66A14A14291
:1031500000D100BF0A1201249440A3B2DC430480D2
:1031600010BD00000038014000440040004800400D
:10317000004C004000500040704770477047704757
:10318000704710B500F008F8006810BD10B504468F
:1031900000F002F8046010BD00487047181A0020C3
:1031A00000487047181A00207546FFF7F9FFAE4631
:1031B00005006946534620F00700854618B020B543
:1031C000FEF7C8FABDE820404FF000064FF00007B8
:1031D0004FF000084FF0000B21F00701AC46ACE8BF
:1031E000C009ACE8C009ACE8C009ACE8C0098D462C
:1031F00070470446AFF300802046FCF7E0FF49002B
:1032000050EAC12018BF04204A0D18BF40F0010049
:1032100040F2FF72B2EB515F08BF40F0020001289C
:1032200008BF0520704700002DE9F74F144694B001
:103230000021C4E902111599079121F00045C949FF
:103240008D4206DC1599C4E9000117B00020BDE8E5
:10325000F08FC549DFF814A3A9423CDD0799C44E9D
:103260000029C44FC44A1599534619DD00F018FFD0
:10327000554506D0C14AC24B00F012FFC4E9000117
:103280000AE04FF0D352BE4B00F00AFF32463B46F5
:1032900000F006FFC4E9000117B00120BDE8F08F7F
:1032A00000F064FB554506D0B44AB54B00F05EFB18
:1032B000C4E900010AE04FF0D352B14B00F056FBD5
:1032C00032463B4600F052FBC4E9000117B04FF014
:1032D000FF30BDE8F08FAB49A942159978DB21F0AA
:1032E000004183468846A84AA84B00F0CFFD002243
:1032F000A74B00F03BFB00F041FD099000F09BFD67
:1033000006460F469C4A534600F0C0FD43465A46C7
:1033100000F0BAFE80468A46984A994B30463946B4
:1033200000F0B4FD2A0D01250B924246534600F0F1
:10333000ABFE032DC4E9000139D00B98C1F30A514B
:10334000401A05EB45111139814230DA9148C346E4
:10335000784400EB0510CDF80CA00C90D0E90023C8
:103360003046394600F092FD02460B460491069025
:103370005846039900F094FE80468A4602460B4662
:103380005846039900F08CFE049B069A00F088FED4
:1033900083460C9803913946D0E90223304600F069
:1033A00075FD5A46039B00F07BFE6D1CBDE7079838
:1033B0000028A2BF099817B0BDE8F08F616881F0BE
:1033C00000416160099817B04042BDE8F08FFFE707
:1033D00084461598C1F31301C0F30A50A0F2F530EA
:1033E0004FEA601800F01F06C6F12000139000207D
:1033F0000690079041F4801E05206D4676B1664A1E
:1034000008EB00017A4452F8213002EB8101B3400D
:103410004A68139922FA01F1194305E05F4908EB64
:103420000002794451F82210A1FB0E27A1FB0C13D6
:103430001A449A4234BF0123002303EB070A05EB29
:103440008003D3E901B70F448F4234BF012100212B
:1034500093448B4411B1934502D903E0934501D2C3
:10346000012100E00021C3E901B7514445F82010D3
:10347000011EA0F10100C1DC0298059F00F100507F
:10348000800F12900298DDE90356800000F0D3FC13
:10349000834628460D9100F0E5FC6FF01D0201F017
:1034A000C8F8CDE90E01304600F0DCFC6FF03D02BB
:1034B00001F0BFF880468A46384600F0D3FC6FF032
:1034C0005D0201F0B6F8074642465346119100F0FE
:1034D0004DFADDE90E2300F049FA5A460D9B00F043
:1034E00045FA00250E465A4628460D9B00F0D8FDA9
:1034F000DDE90E2300F0D4FD4246534600F0D0FD36
:103500003A46119B00F0C0FDDFF898A0244A5346CC
:1035100000F0BCFC07468846234A244B3146284627
:1035200000F0B4FC3A46434600F020FA07468846CD
:103530004FF0A84253463146284600F0A7FC3A46D1
:10354000434600F013FA159A12F0004F04D0129A75
:1035500081F0004152421292C4E90001129817B062
:10356000BDE8F08FFB21E93F7CD90240FB21F93F08
:103570007370032E8A19A33B000040543163621A12
:1035800061B4D03DFB21394183C8C96D305FE43F50
:103590000000E03FA41C0000201C0000021C0000F2
:1035A000182D4454FB21F93D3326A611460B113C3E
:1035B0002DE9FF4D21F0004807460C46B8F1795F30
:1035C00008DA00F0DBFB002801BF0020324904B01C
:1035D000BDE8F08D3A4623461046194600F056FCE9
:1035E000054602462D480E460B460621784400F05B
:1035F0005DF82A46334600F049FCDDE902238246A5
:103600008B463846214600F041FC04460F465246A0
:103610005B462846314600F039FC22463B4600F026
:103620003FFD07468A464FF0FF322846314601F0FB
:1036300000F81B4A90450ADA3A46534600F030FD3E
:1036400004B00022BDE8F04D134B00F01DBD154A3B
:103650004245A8BFA8F500154FF00004B8BF124DB1
:1036600022462B4600F01CFD0646884622462B4685
:103670000020094900F014FD04460D463A46534621
:103680003046414600F00CFD04B022462B46BDE812
:10369000F04D00F0F9BC00000000F03FD819000028
:1036A0003333D33F0000E93F0000D23F2DE9F04122
:1036B0004F1E00EBC7010446D1E9000115461E4626
:1036C00037F006020DD02A46334600F0DFFB7F1E9E
:1036D00004EBC703D3E9002300F048F937F00602F2
:1036E000F1D1022F25D0042F13D0062F18BFBDE82B
:1036F000F0812A46334600F0C9FBD4E90A2300F0E2
:1037000035F92A46334600F0C1FBD4E9082300F01E
:103710002DF92A46334600F0B9FBD4E9062300F020
:1037200025F92A46334600F0B1FBD4E9042300F022
:103730001DF92A46334600F0A9FBD4E9022300F024
:1037400015F92A46334600F0A1FBD4E90023BDE871
:10375000F04100F00BB900002DE9FF4D054621F0C6
:10376000004084B00C46B0F1795F0BDA2846FFF7D1
:1037700046FD042808BF00F06FF8284608B021462F
:10378000BDE8F08D2A460B46104600F07FFB06464A
:103790000F462A46234600F079FB804626488A4693
:1037A00032463B4605217844FFF780FF8346109858
:1037B000029160B3214A224B4046514600F066FB1D
:1037C000CDE900015A4640465146029B00F05EFB9F
:1037D00082468846DDE906014FF0FF3200F029FFFE
:1037E0005246434600F05CFC32463B4600F04EFB3E
:1037F000DDE9062300F054FCDDE9002300F050FC75
:1038000008B02A462346BDE8F04D00F03DBC0B460B
:103810005A463046394600F039FB084A084B00F05A
:10382000A5F84246534600F031FB08B02A4623462D
:10383000BDE8F04D00F09AB81619000049555555ED
:103840005555C5BF012200F0F4BE002213461046B4
:10385000114600F03BB90000024A0020110700F0B9
:10386000E8BE000001FDFFFF00B5254B21F000423E
:1038700087B09A4203DC0022134600922BE0214BD2
:103880009A4208D140B94FF00100FFF77FFCFFF7E3
:10389000DCFF07B000BD03DBFFF7D4FF07B000BDBE
:1038A00002AAFFF7C1FC10F003014FF001000DD098
:1038B000012914D002291AD00DF1080C9CE80F0040
:1038C000FFF776FE07B081F0004100BD0DF1080C56
:1038D00000909CE80F00FFF73FFF07B000BD0DF11F
:1038E000080C9CE80F00FFF763FE07B000BD0DF168
:1038F000080C00909CE80F00FFF72EFFE2E70000A5
:10390000FB21E93F0000F07F21F00042A2F160526C
:10391000B2F5801F01F0004328BFD2F17F6C0BD9B4
:103920005FEA001C43EAC20242EB507018BF7047C6
:1039300028BF20F001007047B2F5801FBCBF1846B9
:1039400070474FEA410C1CF5001F02D2084600F0F8
:1039500039BE70B500F044FB00000089FFF7F6BFE8
:103960004FF00040A0F580007047000010B591EACC
:10397000030F48BF83F0004300F19A83841A71EB70
:10398000030C05D2121943EB0C03001B61EB0C0175
:10399000DFF824E14FEA1154A4EB135C1EEA430F55
:1039A00018BF9EEA445F73D023EA0E03DCF1200EB9
:1039B00021EA045143F4801332D322FA0CFE10EBB7
:1039C0000E0023FA0CFE41EB0E01CCF1200E03FA9F
:1039D0000EFE10EB0E0051F10001B1F5801FCCF18D
:1039E000200E32D201EB045112FA0EF2BDE8104063
:1039F00058BF7047401C38BF5FEA420218BF70478B
:103A0000002814BF20F0010041F100014FEA4103FA
:103A100013F5001F38BF7047A1F1C04100F02EBB65
:103A2000012A43EB0302ACF1200CDCF11F0E32BF84
:103A30004FF0000E23FA0CF310EB030041EB04519E
:103A4000B4EB115FD0D0A1EB045101F5801149080E
:103A50005FEA300001EB04510ED350F1000038BF93
:103A600012FA0EFE08D1BDE81040C9E7401C38BF6D
:103A70005FEA4202CAD1C3E7BDE810404FEA410302
:103A800013F5001F38BF7047A1F1C04100F0F6BA2E
:103A90009EEA445F08D011EA5E0FBDE8104004BF03
:103AA00001F0004100207047BDE8104070B500F003
:103AB00097FA00BF64FBBE3E0000E0FF02494FF0F2
:103AC000000000F084BD00BF0000F87F2DE9C04178
:103AD00030B4DFF8A0C23CEA111418BF3CEA13145A
:103AE00000F0EC8081EA03051CEA111444EAD57465
:103AF00018BF1CEA131500F0C780A4EB05044FF0B3
:103B0000004545EAC12145EAC32341EA505143EA51
:103B1000525304F17F74994204F500344FEAC020F7
:103B20004FEAC22208BF904200F09C804FEA136522
:103B30000FF24016765D4FEA134506FB05F7C7F115
:103B4000807706FB07F74FEAD737A7FB0368764273
:103B5000C8F58038A7FB06CE38BFA8F1010807FBDF
:103B600008E64FF0000EA6FB028CE6FB03CEDCF16C
:103B7000000CCEF1004E38BFAEF1010EA6FB0C5882
:103B80004FF000074FF00005E6FB0E87A1FB08C6CB
:103B9000A0FB07CE16EB0E0645F10005E1FB07651D
:103BA00015F1E04E7EBFA4F580345FEA46066D4114
:103BB00016F1800745F100054FEA17274FEA066620
:103BC00047EA0567A6F1DE46B6F1805F4FEA1525A4
:103BD0001FD9384624F0010C05EBC471BCF1FE6F0F
:103BE00001EB0C1102D8F0BCBDE8008124425CBF9F
:103BF00001F5801E9EEAC47F02D4F0BCBDE80081BE
:103C0000244238D4F0BCA1F1C041BDE8004100F02D
:103C100035BA4FEAD22242EA43524FEAD323A7FBF6
:103C200002864FEAD02040EA415007FB03661EEAB5
:103C30000E0F4FEAD12105FB026658BFA6EB0056D6
:103C4000B6EB00564FEA520E4EEAC37E18EB0E0E4C
:103C500056EB530EBDD518EB02085E417F1C55F1A3
:103C60000005B6E74FF480154FF000074FF000064F
:103C70004FF00008ADE7F0BC4FF0000001F1C0418B
:103C800001F00041BDE8008111EA0C1F0CEA131598
:103C900000D00CE013EA0C1F00F025804FF000006C
:103CA000F0BC81EA030101F00041BDE80081F0BCF5
:103CB000BDE8004181EA030100F0E0B9F0BCBDE8D5
:103CC000004170B500F08CF9097EFC3E00F007B8A9
:103CD00081EA03014FF0000001F00041704781EAE2
:103CE000030100F0CBB9F0BCBDE800414FF000008B
:103CF00021497047FFFDFBF9F7F5F4F2F0EEEDEB2B
:103D0000E9E8E6E4E3E1E0DEDDDBDAD8D7D5D4D3D9
:103D1000D1D0CFCDCCCBCAC8C7C6C5C4C2C1C0BF25
:103D2000BEBDBCBBBAB9B8B7B6B5B4B3B2B1B0AF2B
:103D3000AEADACABAAA9A8A8A7A6A5A4A3A3A2A10F
:103D4000A09F9F9E9D9C9C9B9A99999897979695CA
:103D500095949393929191908F8F8E8E8D8C8C8B66
:103D60008B8A8989888887878685858484838382EE
:103D7000828181800000FF070000F87F4FEA410345
:103D80004FEA5353A3F58063D3F11E03C8BFD3F1A9
:103D9000210C0CDD4FF0004242EAC12242EA5052AF
:103DA00032FA03FC8CEAE17CACEBE1707047102B3B
:103DB000C4BF0020704703F5787CBCF1FF3F04D0FE
:103DC0006FF0004282EA2100704770B500F008F9F8
:103DD0004992248000207047F2E700004FEA115317
:103DE000A3F58063D3F11E03A8BFD3F1200C08DB39
:103DF0004FF0004242EAC12252EA505232FA03F036
:103E0000704709420BD4102BC4BF0020704703F544
:103E1000787CBCF1FF3F05D04FF0FF3070474FF08A
:103E20000000704770B500F0DBF800BF49922480B5
:103E300000207047F0E710F0004248BF4042B0FA5F
:103E400080F310FA03F10AD0C3F11D0303F5806378
:103E50004FEA415002EB035202EBD12170474FF081
:103E600000007047B0FA80F310FA03F10AD0C3F1F2
:103E70001D0303F580634FEA41504FEA035202EB02
:103E8000D12170474FF0000070470000DFF848C1B3
:103E900070B51CEA111E1EBF1CEA13159EEA0C0F1A
:103EA00095EA0C0F00F06F8081EA030423EA4C13BB
:103EB0004EEAD47E21EA4C1141F4801143F4801380
:103EC000AE44A1FB024CA0FB0365AEF17F7E361928
:103ED00055EB0C05A1FB034C4CF10003A0FB021CAD
:103EE00016EB0C06654153F10003094218BF46F07A
:103EF000010613F4007F0BD14FEA03314FEA05307E
:103F0000340341EA155140EA16506FF003020AE00B
:103F10004FEAC3214FEAC520F40241EA555140EA75
:103F200056506FF0020202EB2E4201EB025585EA79
:103F3000CE710AD05FEA440C18BF24F0004450F15F
:103F4000000041F1000120EAD47040F2FE7C62459D
:103F500000D270BDA84214BF4FF080444FF04044DF
:103F6000002E08BF0024BEF1806FA8BFA1F1C041A0
:103F7000BDE8704080F282804FF0000001F1C04146
:103F800001F0004170479EEA0C0F0CEA131518BFB0
:103F900095EA0C0F06D04FF0000081EA030E0EF0F8
:103FA000004170BD00F01CF88900013E00F007B828
:103FB00000F009B84FEA430C5FEA5C5C08D081EA84
:103FC000030100F05BB84FEA410C5FEA5C5CF6D19C
:103FD0004FF00000014970470000FF070000F87F24
:103FE0000EF1020E2EF0030E5EF8046B364205D47D
:103FF000012A43EB030515F5001F12D8012841EBF8
:10400000010C1CF5001F0CD80ED14FEAD17C15F520
:10401000001F0CEB4C0C0CF1020C08BF4CEBD37CDA
:1040200004E04FF0080C01E04FEAD37C0CEB4C05A8
:1040300026FA05F606F00706B6F1040C06D20EEBDA
:10404000860CBDE870404CF0010C6047DFE80CF0D6
:10405000090B02024FF000414FF00000A1F50021D2
:1040600070BD19461046012851EB010418BFD4F564
:10407000001484BF002001F0004170BD0808A0F5C5
:1040800000114FEA3101704791EA030F10B581F03A
:1040900000413FF573AC83F0004300F009B8000025
:1040A00010B591EA030F48BF83F000433FF566ACBB
:1040B000841A71EB030C07D212198CF0004C43EBFD
:1040C0000C03001B61EB0C01DFF8A4E14FEA115473
:1040D000A4EB135C1EEA430F18BF9EEA445F00F096
:1040E000B08023EA6E03524221EA0451C3EB6E030F
:1040F00038BF5B1EDCF1200E25D322FA0CFE10EB3C
:104100000E0043FA0CFE41EB0E01CCF1200E03FA37
:104110000EFE10EB0E0051F10001CCF1200E29D45F
:1041200012FA0EF201EB0451BDE8104058BF70477F
:10413000401C1CBFB2F1004F704700280CBF491C47
:1041400020F00100704712EB020E43EB030218BF90
:104150004FF0010E4EEA4202ACF1200CDCF11E0ED3
:1041600054D943FA0CFE10EB0E0051F1FF31CCF1A3
:104170001E0ED5D50EF1010E12FA0EFE404141EB96
:10418000010101EB445C5FEA5C5C10D910EBDE706E
:1041900001EB045138BFBEF1004FBDE8104018BF1D
:1041A000704700280CBF491C20F00100704730D236
:1041B0004FEAD42C11F5001124F400641BD0B1FA9D
:1041C00081F20B3AA41AA41ED2F12003914030FAD6
:1041D00003F31943904001EBCC71002C01EB045127
:1041E000BDE81040A8BF704701F1C0414FF000008A
:1041F00001F000417047B0FA80F310FA03F100D1EA
:1042000010BDE41A173C4805C90AE4E701EB045164
:1042100010BD491001EB0451BDE810404FEA3000D9
:1042200002E04FF0000170474A0008BF0042F8D09A
:10423000B2F5001F28BF704701F000414FF00000A9
:1042400070479EEA445F07D011EA5E0FBDE8104058
:1042500004BF002100207047BDE8104070B5FFF793
:10426000BFFE00BF40DFF63E83F0004110467047BE
:104270000000E0FF43004FEAD30C4FEA3C0C434000
:104280001FBF40070CF1605113F0FE4F70471CF048
:10429000006F03D100200CF0004170470CF0004388
:1042A00043EA507010B540EACC0000F045F900BF79
:1042B000000000924FEA0001FFF7E0BE4FF000411E
:1042C0004FF00000A1F500217047401058BFC0F129
:1042D0004040491058BFC1F140418142EFF3008096
:1042E000704700004FF47F0C1CEAD0121EBF1CEA7E
:1042F000D11392EA0C0F93EA0C0F00F0858090EA3C
:10430000010F48BF42F4807240F4000C41F40000F9
:104310002CF07F4120F07F4000B58142A2EB0302E8
:104320000FF2081CACEB504EC0F100009EF800E00C
:104330004FEA4E0E00FB0EFC38BF49004FEA2C1C22
:1043400002F5FA020CFB0EF34FEACE1E4FEA112CD7
:104350004FEAC1210EEB635E42EB22420EFB0CFCE6
:104360004FEA1C5300FB03114FEA112C4FEA0131B5
:104370000EFB0CFC4FEADC4C00FB0C11C14228BFC9
:1043800009184CEB03335DF804EB10EB410143EBF0
:10439000C250B2F57C0F38BF704729D512F0F00F2C
:1043A0001CBF00F1C04000F00040704700818283D4
:1043B0008485868788898B8C8D8E8F919293959634
:1043C00097999A9C9D9FA0A2A3A5A7A8AAACAEB0BE
:1043D000B2B3B5B7B9BCBEC0C2C5C7C9CCCED1D4C3
:1043E000D7D9DCDFE2E6E9ECF0F3F7FAFE000000F3
:1043F0004FEA400C0CF1807CBCF17E4F28BF704727
:10440000B0F1C04000F0DEB890EA010F0CEAD11321
:1044100048BF42F48072624538BF634507D213F447
:104420007F0F16D080EA010000F00040704710B501
:1044300000F082F8097EFC3E00F005B880EA010039
:1044400000F00040704780EA010000F0004000F0FA
:10445000B9B812F47F0F04BF0248704780EA010028
:1044600000F0B0B80000C07F41000B0ED3F19E02F7
:1044700008D950F400034FEA032323FA02F048BF9F
:104480004042704710B500F057F800BF49922480B1
:10449000002070476FF0004282EA20007047000061
:1044A00010F0004148BF4042B0FA80F310FA03F226
:1044B000C3F19D030BD051EAC35101EB1220530607
:1044C00038BF704700F1010008BF20F001007047BD
:1044D00050EA010C00F113801CF5000F58BFBCF529
:1044E000000F01D48842704707D710F5000F58BF5E
:1044F00011F5000F15D488427047894270471CF5AA
:10450000000F04D5BCF5000FF7D5814270474FF07E
:10451000807C1CEB400F38BF1CEB410F01D2814265
:10452000704710B500F008F8922449004FF0005091
:104530004FF08051FFF7C9BE0EF1020E2EF0030EB0
:104540005EF8044B244204D44FEA4102B2F17F4F9B
:1045500011D84FEA4003B3F17F4F0CD80ED14FEA88
:10456000D07CB2F17F4F0CEB4C0C0CF1020C08BF6D
:104570004CEBD17C04E04FF0080C01E04FEAD17C19
:104580000CEB4C0324FA03F404F00704B4F1040C1C
:1045900006D20EEB840CBDE810404CF0010C6047D5
:1045A000DFE80CF0070802024FF00040A0F58000A1
:1045B00010BD0846420018BFD2F1807288BF00F0DB
:1045C000004010BDFF2141EAD050C00570470CF0FB
:1045D0000F03092B08BF082000F059800A2B0BD0CD
:1045E000082B18BF704708BF1CF0400F0AD04FF0CF
:1045F00000004FF0000170471CF0400F18BF4FF053
:10460000004070471CF0100F08D020F0704300F0FD
:104610007F4242EAD3014FEA4370704700F06040A6
:1046200021F07F4242EA000201F07F4040EA7270CE
:1046300070474FF0FF0C4CF4E06C1CEA11531CBFA8
:104640009CEA030C9445C2BFDA4201EB0251704769
:10465000002B0DD0BCF1000F0FD0002A01F000415B
:10466000A4BF41F0E04141F07F614FF0000070478E
:1046700001F000414FF00000704750EA01334FF065
:104680009B0C18BF4CF0806C7FF418AA70471CF488
:10469000801F11D01CF4E02F03D06FEACC31490009
:1046A00070474FF04050EFF3008222F0704242EA30
:1046B000000282F3008870474FF00000704700004E
:1046C000000000000000002F0000000007000700AD
:1046D00000147F147F1400242A7F2A1200626408C9
:1046E0001323003649552250000005030000000046
:1046F0001C224100000041221C000014083E081446
:104700000008083E0808000000A060000008080833
:104710000808000060600000002010080402003E4D
:104720005149453E0000427F4000004261514946E8
:10473000002141454B31001814127F1000274545D8
:104740004539003C4A4949300001710905030036EA
:104750004949493600064949291E000036360000FD
:104760000000563600000008142241000014141402
:1047700014140000412214080002015109060032FD
:104780004959513E007C1211127C007F494949363B
:10479000003E41414122007F4141221C007F4949A6
:1047A0004941007F09090901003E4149497A007FDA
:1047B0000808087F0000417F4100002040413F0180
:1047C000007F08142241007F40404040007F020CDF
:1047D000027F007F0408107F003E4141413E007F80
:1047E00009090906003E4151215E007F0919294649
:1047F0000046494949310001017F0101003F404025
:10480000403F001F2040201F003F4038403F0063D2
:1048100014081463000708700807006151494543F4
:1048200000007F41410000552A552A5500004141B2
:104830007F000004020102040040404040400000AC
:1048400001020400002054545478007F4844443846
:1048500000384444442000384444487F00385454CD
:10486000541800087E0901020018A4A4A47C007F4B
:10487000080404780000447D4000004080847D00EE
:10488000007F102844000000417F4000007C041895
:104890000478007C0804047800384444443800FC60
:1048A000242424180018242418FC007C080404087C
:1048B00000485454542000043F444020003C4040F1
:1048C000207C001C2040201C003C4030403C004428
:1048D00028102844001CA0A0A07C004464544C4430
:1048E000141414141414C2D6D7D3B2BBD4B2D0A1AA
:1048F000C3F7B4F3D4AA00645CE7444420D00C03AB
:104900000C9020400004043F0202001F22222120BC
:10491000380000404141414141E151494543414056
:10492000000000000020203F000000000000000206
:104930000202824222F20E024282020200040201BC
:104940000000003F0000000001060000FF01C15D03
:10495000555555555DC101FF00003F2033302824D7
:1049600023242833203F00008040300000FF000057
:1049700010204080000100000020203F00000000C7
:10498000000100FE222222FE0000FF11111111FF82
:10499000000702020223100C03010121213F001035
:1049A00010101010D03FD010101010100020201048
:1049B000080601000106081020200020202222E223
:1049C000222222E2222220200020100806010000DC
:1049D000001F202020380000000000000000000020
:1049E00000000000000000000000F80000000000CF
:1049F0000000333000000000100C06100C06000010
:104A00000000000000000040C07840C07840000472
:104A10003F04043F040400007088FC0830000000DC
:104A20001820FF211E0000F008F000E01800000030
:104A3000211C031E211E0000F00888700000001ECB
:104A40002123241927211010160E00000000000059
:104A500000000000000000000000E0180402000058
:104A60000000071820400000020418E000000000C9
:104A700040201807000000404080F08040400002C5
:104A800002010F01020200000000F000000000011E
:104A900001011F0101010000000000000000008072
:104AA000B0700000000000000000000000000000E6
:104AB00001010101010101000000000000000000EF
:104AC000303000000000000000000080601804008A
:104AD0006018060100000000E010080810E0000067
:104AE0000F102020100F00001010F8000000000030
:104AF00020203F2020000000700808088870000077
:104B000030282422213000003008888848300000F6
:104B100018202020110E000000C02010F800000016
:104B2000070424243F240000F808888808080000AF
:104B300019212020110E0000E010888818000000C4
:104B40000F112020110E0000380808C83808000096
:104B500000003F0000000000708808088870000016
:104B60001C222121221C0000E010080810E0000097
:104B700000312222110F00000000C0C00000000020
:104B80000000303000000000000080000000000045
:104B9000008060000000000000804020100800003D
:104BA0000102040810200040404040404040000402
:104BB00004040404040400000810204080000000E5
:104BC00020100804020100007048080808F00000E6
:104BD00000003036010000C030C828E810E00007AF
:104BE00018272423140B000000C038E00000002028
:104BF0003C23020227382008F888888870000020AB
:104C00003F202020110E00C0300808080838000797
:104C10001820202010080008F808080810E00020DC
:104C20003F202020100F0008F88888E80810002096
:104C30003F20202320180008F88888E8081000206A
:104C40003F200003000000C03008080838000007BB
:104C5000182020221E020008F808000008F808208A
:104C60003F210101213F20000808F808080000004A
:104C700020203F2020000000000808F8080800C09D
:104C80008080807F00000008F888C0281808002075
:104C90003F20012638200008F8080000000000200E
:104CA0003F20202020300008F8F800F8F808002005
:104CB0003F003F003F200008F830C00008F80820FF
:104CC0003F200007183F00E01008080810E0000F20
:104CD00010202020100F0008F808080808F0002015
:104CE0003F210101010000E01008080810E0000F5A
:104CF00018242438504F0008F888888888700020CD
:104D00003F2000030C30200070880808083800009D
:104D100038202121221C00180808F8080818000073
:104D200000203F2000000008F808000008F80800F4
:104D30001F202020201F000878880000C8380800A5
:104D40000007380E010000F80800F80008F800031A
:104D50003C0700073C03000818688080681808209A
:104D6000302C03032C30200838C800C83808000055
:104D700000203F2000000010080808C83808002064
:104D800038262120201800000000FE020202000048
:104D900000007F40404000000C30C00000000000D8
:104DA0000000010638C00000020202FE0000000000
:104DB0004040407F000000000004020202040000A6
:104DC0000000000000000000000000000000008063
:104DD000808080808080800002020400000000004B
:104DE00000000000000000000080808080000000C3
:104DF00019242222223F2008F800808000000000B1
:104E00003F112020110E0000000080808000000073
:104E10000E112020201100000000808088F8000082
:104E20000E112020103F20000080808080000000B4
:104E30001F222222221300008080F0888888180018
:104E400020203F2020000000008080808080000023
:104E50006B94949493600008F80080808000002098
:104E60003F210000203F20008098980000000000B3
:104E700020203F20200000000000809898000000C3
:104E8000C08080807F000008F800008080800020C3
:104E90003F24022D302000000808F8000000000028
:104EA00020203F20200000808080808080800020A3
:104EB0003F20003F20003F80800080808000002055
:104EC0003F210000203F2000008080808000000003
:104ED0001F202020201F0080800080800000008094
:104EE000FFA12020110E00000000808080800000C3
:104EF0000E112020A0FF8080808000808080002014
:104F0000203F212000010000008080808080000080
:104F100033242424241900008080E08080000000D5
:104F200000001F2020000080800000008080000022
:104F30001F202020103F2080808000008080800083
:104F4000010E300806010080800080008080800F04
:104F5000300C030C300F0000808000808080000047
:104F600020312E0E312000808080000080808080E3
:104F7000818E701806010000808080808080000093
:104F800021302C2221300000000000807C02020031
:104F9000000000003F404000000000FF0000000053
:104FA000000000FF0000000002027C800000000002
:104FB00040403F000000000006010102020404001E
:104FC00000000000000000004C5555555555A53F08
:104FD0007751C1166CC156BF9015CB19A001FA3E8E
:104FE000AD529C804F7E92BEC4B1B4BD9EEE213EB8
:104FF000D43888BEE9FAA8BD00004054FB21F93F2F
:105000003163621A61B4D03D0000601A61B4D03DD2
:105010007370032E8A19A33B0000002E8A19A33B4C
:10502000C14920259A837B39000000000000000060
:105030006E83F9A22915444ED15727FCC0DD34F503
:10504000999562DB4190433CAB6351FE61C5BBDE89
:105050003A6E24B7E0D24D42EA2E49061C92D1099D
:105060001CEB1DFE3EA729B1F53582E88444BB2E1A
:1050700026709CE9417E5FB439D69139F439538367
:105080008B5F849C3B28F9BDFF97F81F0F9805DEC6
:105090008B112FEF1F6D0A5ACF7E366DB709CB27C4
:1050A000663F464F2DEA5F9EC7BA27757BF1E5EB59
:1050B000F739073DEA92528AB15FFB6B085D8D1F9D
:1050C000A6F810111111813FD561C119A0012ABFA5
:1050D0007DFEB157E31DC73EEB9C2B8AE6E55ABE29
:1050E0007CD5CF5A3AD9E53D085100080000002090
:1050F000500000006C0100085851000850000020CA
:10510000282000008801000800004842000000003C
:10511000DC0000000000803F0000000000000000F4
:1051200000A24A0400000000000000000102030485
:105130000607080901000000000000000000000050
:10514000000000000000010203040102030406073E
:08515000080902040608000032
:0400000508000131BD
:00000001FF
