:020000040800F2
:10000000C820002055250008190800081B08000812
:100010001F08000823080008270800080000000047
:100020000000000000000000000000002B08000895
:100030002D080008000000002F0800083108000803
:100040006F2500086F2500086F2500086F25000840
:100050006F2500086F2500086F2500086F25000830
:100060006F2500086F2500086F2500086F25000820
:100070006F2500086F2500086F2500086F25000810
:100080006F2500086F2500086F2500086F25000800
:100090006F2500086F2500086F2500086F250008F0
:1000A0006F2500089F0600086F2500086F250008CF
:1000B0006F250008CD0400086F2500086F25000893
:1000C0006F2500086F2500086F2500086F250008C0
:1000D0006F2500086F2500086F250008391F0008EC
:1000E0006F2500086F2500086F2500086F250008A0
:1000F0006F2500086F2500086F2500086F25000890
:100100006F2500086F2500086F2500086F2500087F
:100110006F2500086F2500086F2500086F2500086F
:100120006F2500086F2500086F2500086F2500085F
:1001300000F002F800F03AF80AA090E8000C8244BF
:100140008344AAF10107DA4501D100F02FF8AFF29C
:10015000090EBAE80F0013F0010F18BFFB1A43F0A5
:1001600001031847D4650000F4650000103A24BF6D
:1001700078C878C1FAD8520724BF30C830C144BF0C
:1001800004680C607047000000230024002500264E
:10019000103A28BF78C1FBD8520728BF30C148BFEA
:1001A0000B6070471FB51FBD10B510BD03F046FFB3
:1001B0001146FFF7F7FF00F009F903F078FF03B4E9
:1001C000FFF7F2FF03BC02F069F900002DE9F04FE0
:1001D0008DB00646894600243146FA4805F042F8BB
:1001E000074605F001F9F8490860484605F018F996
:1001F0000746F64905F036F8F5490860F5480078F5
:10020000002871D1F049086800BF4FE0601C04F07D
:1002100070FD82468B46EC48006804F06AFD024699
:100220000B46CDE90001EC48EC4904F0ADFB524629
:100230005B46CDE9020104F087FDCDE9040104F03D
:1002400071FA07468846E248006804F071FF3A46B2
:100250004346CDE9060104F077FD0022E04BCDE9ED
:10026000080104F071FDCDE90A0104F015FD054611
:10027000B5F5B47F03D215B14FF4B47505E040F67F
:10028000A840854201D94FF46165C5F56160D54943
:1002900041F8240051F82410CB4A106800EBD072CA
:1002A00004EB6202D04B43F82210641CC649086874
:1002B00000EBD071B4EB610FA8DB0FE04FF461608D
:1002C000C84941F824000146BF4A106800EBD072CB
:1002D000A4EB6202C44B43F82210641CBA480068C5
:1002E0008442EBDB6CE0FFE700244DE0601C04F08F
:1002F00000FDCDE90201B448006804F0FAFC0746AD
:100300003A460B46B448B54904F03EFBCDE900013E
:10031000DDE9022304F018FDCDE9040104F002FA3E
:10032000CDE90801AA48006804F002FFCDE9060102
:10033000DDE9082304F008FD82460022A84B04F002
:1003400003FDCDE90A0104F0A7FC0546B5F5B47F2D
:1003500003D215B14FF4B47505E040F6A8408542CC
:1003600001D94FF46165C5F56160A04941F82400E9
:1003700051F82410944A106800EBD07204EB62022A
:100380009B4B43F82210641C8F49086800EBD07126
:10039000B4EB610FAADB0FE04FF46160934941F8C1
:1003A00024000146884A106800EBD072A4EB620278
:1003B0008F4B43F82210641C834800688442EBDBB7
:1003C00001208C4908700DB0BDE8F08F002500F0C9
:1003D00021FB00F039FB01F0F7FF01F0DEFA01F03C
:1003E000B2F94FF4A06002F0D5F84FF4612002F0AA
:1003F00064F84FF4E15147F2305000F001FE022062
:1004000000F06AFE00240EE04FF46160754941F887
:100410002400764941F82400734941F824007449C6
:1004200041F82400641CB4F5C87FEDDB7248016814
:1004300072480068FFF7CAFE0121714803F0C8F84E
:1004400043E0002000F07FFD05464DB3022D02D0B1
:10045000042D24D111E00021694803F0C5F80022E1
:100460000121674803F0CFF800206649086066A2C2
:100470000021232001F035F911E00121604803F04B
:10048000B3F8012211465E4803F0BDF801205D4932
:1004900008605FA20021232001F023F900BF00BF04
:1004A00000F0F6FAC5B26DB15B480560284600F071
:1004B00069FC5148016851480068FFF787FE01F068
:1004C00094F902E00A2001F0BCFFBAE710B501215F
:1004D000524803F046FB002870D051480068401C89
:1004E0004F4908604F480068012867D10022012168
:1004F0004A4803F088F84CA20621002001F0F1F8E8
:100500004EA003F049FD0A2001F048FB012856D116
:100510000BE020214E4803F0E3FC012805D14C48B4
:1005200003F074FC3E2800D100E0F2E700BF49A0D0
:1005300003F032FD0A2001F031FB012840D10A20EE
:1005400001F02CFB01283CD100BF2021404803F0E2
:10055000C7FC0128F9D13E4803F058FC3E49087019
:1005600000BF20213A4803F0BBFC0128F9D13848EC
:1005700003F04CFC3949087000BF2021344803F0D7
:10058000AFFC0128F9D1324803F040FC344908702F
:1005900000BF20212E4803F0A3FC0128F9D12C48EC
:1005A00003F034FC2E4908702C4800782A49097859
:1005B00000EB012000B22B49088055E06AE05FE0C3
:1005C00058E062E000409C45040000200000964393
:1005D0000C00002024000020F1D4C853FB21194056
:1005E0000020AC40E006002060130020A0000020A6
:1005F000200D002025000020080000200000002021
:10060000002C014010000020CDA3D6B9000000004E
:10061000C6F4B6AF0000000028000020000400402F
:10062000300000206800002053656E642D52657113
:10063000756573742D2D2D2D0000000041542B4342
:10064000495053454E443D312C330D0A0000000003
:1006500000480040520D0A00340000203500002000
:10066000360000202C00002054A20621002001F0BA
:1006700038F80AE056A20621002001F032F804E022
:1006800053A20621002001F02CF801221146554802
:1006900002F0B9FF0121534803F074FA10BD10B500
:1006A0000121514803F05DFA00287DD04F480068D1
:1006B0004F490968884231DB4E48006801281ED145
:1006C0004D480068401C4C490860084600684B498A
:1006D0000968884213D10021434802F085FF0022B7
:1006E0000121414802F08FFF002042490860424941
:1006F0000860AFF2EC020021232000F0F2FF00209E
:100700003A4908603E480078012807D13D48007802
:10071000C0433C49087000203949087039480078C6
:1007200000BB39483149096830F821002E4934317D
:10073000088035482D49096830F821002A493831A8
:10074000088032482949096830F8210026493C319F
:1007500008802E482549096830F821002249403197
:1007600008801FE02A482149096830F821001E4905
:100770003431088026481D49096830F821001A499B
:100780003831088023481949096830F82100164992
:100790003C3108801F481549096830F8210012498A
:1007A00040310880114800E003E00068401C0F4918
:1007B000086001210C4803F0E5F910BD4461746143
:1007C0002D526563657669652D2D4F4B0000000045
:1007D00053656E64526571756573742D4661696CFD
:1007E0000000000000040040002C01403C000020FC
:1007F0000400002014000020180000201C0000202D
:100800002500002024000020A0000020200D002052
:10081000E006002060130020704700BFFEE700BF25
:10082000FEE700BFFEE700BFFEE770477047704776
:10083000704700000CB50020019000906C480068E3
:1008400040F480306A49086000BF6948006800F4DD
:10085000003000900198401C0190009818B9019850
:10086000B0F5A06FF1D16248006800F4003010B11B
:100870000120009001E0002000900098012843D161
:100880005C48006840F010005A490860084600685B
:1008900020F0030008600846006840F0020008608D
:1008A00053484068524948600846406848600846D6
:1008B000406840F4806048600846406820F47C103E
:1008C00048600846406840F4E81048600846006800
:1008D00040F08070086000BF4548006800F000707C
:1008E0000028F9D04248406820F0030040494860A1
:1008F0000846406840F00200486000BF3C4840683D
:1009000000F00C000828F9D10CBD10B5FFF792FFDC
:1009100010BD10B53648006840F001003449086049
:100920000846406834490840314948600846006834
:10093000324908402E4908600846006820F48020AB
:1009400008600846406820F4FE0048604FF41F002D
:100950008860FFF7DAFF4FF000602949086010BD9A
:1009600010B5002100200022214B5B6803F00C0130
:1009700021B1042906D0082928D107E0214B224CB7
:10098000236027E01F4B204C236023E0184B5B685B
:1009900003F47010164B5B6803F48032022303EB00
:1009A000904022B9194B4343174C23600DE0104B84
:1009B0005B6803F4003323B1144B4343124C2360B0
:1009C00003E0104B4343104C236003E00D4B0E4CEF
:1009D000236000BF00BF064B5B68C3F303130C4CDE
:1009E000E15C094B1B68CB40074C236010BD000045
:1009F00000100240002002400000FFF8FFFFF6FE5A
:100A000008ED00E000127A004000002000093D00DF
:100A10004400002008B50121442002F045F90820D7
:100A2000ADF8000048208DF803006946F84801F051
:100A30007FFE0120ADF8000028208DF803006946F4
:100A4000F44801F075FE08BD08B50121C02002F090
:100A50002BF95520ADF8000010208DF8030002207E
:100A60008DF802006946EC4801F062FE5520ADF8B1
:100A7000000048208DF8030002208DF8020069462E
:100A8000E34801F055FE5521E34801F000FF08BDA1
:100A900010B50121DE4801F0DEFE78B10421DC480A
:100AA00001F0D9FE50B11021D94801F0D4FE28B18F
:100AB0004021D74801F0CFFE00287DD10A2001F067
:100AC000C0FC0121D24801F0C6FE78B10421D04813
:100AD00001F0C1FE50B11021CD4801F0BCFE28B19B
:100AE0004021CB4801F0B7FE0028E6D15421CA4886
:100AF00001F0CBFE0121C84801F0C9FE0121C44824
:100B000001F0A9FE60B900BF0121C14801F0A3FEB8
:100B10000028F9D05521C04801F0B9FE012010BDD0
:100B20000421BB4801F097FE60B900BF0421B8481A
:100B300001F091FE0028F9D05521B74801F0A7FE39
:100B40000220ECE71021B24801F085FE60B900BF39
:100B50001021AF4801F07FFE0028F9D05521AE48A2
:100B600001F095FE0320DAE74021A94801F073FE69
:100B700060B900BF4021A64801F06DFE0028F9D001
:100B80005521A54801F083FE0420C8E70121A248B1
:100B900001F07BFE0421A04801F079FE01219C4870
:100BA00001F059FE70B900BF0121994801F053FED0
:100BB0000028F9D0552100E0DEE0974801F067FEFB
:100BC0000520ACE70421924801F045FE60B900BF62
:100BD00004218F4801F03FFE0028F9D055218E48AE
:100BE00001F055FE06209AE71021894801F033FEF6
:100BF00060B900BF1021864801F02DFE0028F9D011
:100C00005521854801F043FE072088E740218048B0
:100C100001F021FE60B900BF40217D4801F01BFEBC
:100C20000028F9D055217C4801F031FE082076E7F4
:100C30000421794801F029FE1021774801F027FEB0
:100C40000121734801F007FE60B900BF012170481F
:100C500001F001FE0028F9D055216F4801F017FE80
:100C600009205CE704216A4801F0F5FD60B900BF86
:100C70000421674801F0EFFD0028F9D055216648AE
:100C800001F005FE0A204AE71021614801F0E3FD6A
:100C900060B900BF10215E4801F0DDFD0028F9D0E9
:100CA00055215D4801F0F3FD0B2038E740215848FD
:100CB00001F0D1FD60B900BF4021554801F0CBFDE6
:100CC0000028F9D05521544801F0E1FD0C2026E719
:100CD0001021514801F0D9FD40214F4801F0D7FDC6
:100CE00001214B4801F0B7FD60B900BF0121484820
:100CF00001F0B1FD0028F9D05521474801F0C7FDAA
:100D00000D200CE70421424801F0A5FD60B900BFA9
:100D100004213F4801F09FFD0028F9D055213E48AD
:100D200001F0B5FD0E20FAE61021394801F093FDDF
:100D300060B900BF1021364801F08DFD0028F9D0C0
:100D40005521354801F0A3FD0F20E8E64021304849
:100D500001F081FD60B900BF40212D4801F07BFD0D
:100D60000028F9D055212C4801F091FD1020D6E63D
:100D70005521294801F08BFD5521274801F087FDB9
:100D80000020CCE62DE9F0410446112C15D2DFE815
:100D900004F0D70915212F494A4B4C61646A7C8EB7
:100DA000A7BFCB001D480068401E1C4908600846CC
:100DB0000068012801DC01200860C1E017480068D4
:100DC000401C1649086008460068322801DB3220C2
:100DD0000860B5E01248006810490968401A1049D7
:100DE000086008460068012801DC01200860A7E0CF
:100DF0000B48006809490968084409490860084621
:100E00000068B0F5FA7F02DB4FF4FA70086097E0F3
:100E10000018014000080140001C01402000002093
:100E20001C0000208CE08BE08AE06348006880B9F9
:100E300001206249086062A20021232000F051FCD9
:100E40000121614802F0D0FB012211465E4802F008
:100E5000DAFB75E000F03CFF72E0012211465B48CE
:100E600002F0D1FB6CE00021574802F0BDFB0022EC
:100E70000121554802F0C7FB00204F49086054A2E9
:100E80000021232000F02DFC5AE001214E4802F001
:100E9000ABFB012211464C4802F0B5FB012046494C
:100EA00008604DA20021232000F01BFC48E04C48C4
:100EB000006804F03DF9054600224A4B04F04EF864
:100EC000074603F07FFC46490860474944480068EC
:100ED00004F0BEFA03D84FF07C50414908602FE07F
:100EE0003F48006804F024F9054600223D4B03F01A
:100EF0009BFC074603F066FC394908603B493848CB
:100F0000006804F0A5FA02D838483549086017E0AF
:100F100037480068401F36490860084600680A28BC
:100F200001DC0A2008600BE031480068401D3049B0
:100F3000086008460068FA2801DCFA20086000BF53
:100F400000BFBDE8F08110B5044614B10120294965
:100F5000087028480078F8B10821274801F07BFC88
:100F600028B10121254801F076FC012814D10A207E
:100F700001F067FA00201F49087008211E4801F09F
:100F80006AFC08B9022010BD01211C4801F063FC75
:100F900001280FD10420F6E70821174801F05BFC77
:100FA000012807D10121154801F055FC10B9012095
:100FB000104908700020E6E710000020140000200F
:100FC000C2F6B3E500000000002C01400004004020
:100FD000CDA3D6B900000000C6F4B6AF00000000F3
:100FE000000000200000E03F0000204100007042AF
:100FF00008000020540000200018014000080140B3
:101000007FB505460C460121022001F05AFE681EFC
:1010100080B2ADF80800601E80B2ADF80400002078
:10102000ADF80A00ADF8060001A9E54801F074FF2B
:101030001D208DF8000001208DF801008DF80200C0
:101040008DF80300684601F0AAFA0121DC4802F09D
:10105000BFFA7FBD30B589B005460C46012102209C
:1010600001F02FFE0121092001F01EFE0121D548CB
:1010700001F02FFC2020ADF8200018208DF823006F
:1010800003208DF8220008A9CF4801F051FBADF8EC
:101090001850ADF814400020ADF81A00ADF8160055
:1010A00005A9C74801F038FF7020ADF80400012001
:1010B000ADF806000020ADF80C0001A9C04801F011
:1010C000AAFF0821BE4802F0BCFB0121BC4802F087
:1010D0007FFA09B030BD704710B58AB004460121CF
:1010E000C80201F0E1FD40F60F60ADF81C00601E83
:1010F00080B2ADF818000020ADF81E002020ADF839
:101100001A0001208DF8200006A9B04801F004FF64
:1011100019208DF8040000208DF805008DF80600D8
:1011200001208DF8070001A801F039FA01210420FF
:1011300001F0BAFD4FF47060ADF8240018208DF86E
:10114000270002208DF8260009A9A14801F0F0FA35
:101150007020ADF808000120ADF80A000020ADF8BD
:1011600010004FF46160ADF80E0002A9974801F03D
:1011700010FF02A9954801F04EFF02A9934801F023
:1011800097FF02A9914801F0DEFF08218F4802F085
:101190004FFB08218D4802F054FB08218B4802F0D8
:1011A0005DFB0821894802F062FB0121874802F0BB
:1011B0000FFB0021854802F00BFA0121834802F061
:1011C00013FA0AB010BD00B58DB00121480301F03B
:1011D0006BFD44F61F60ADF828004720ADF82400F1
:1011E0000020ADF82A00ADF826008DF82C0009A9E2
:1011F000784801F091FE0121182001F055FD4FF4CF
:101200008070ADF8300018208DF8330003208DF881
:1012100032000CA9704801F08BFA0220ADF83000C2
:1012200018208DF8330003208DF832000CA9664891
:1012300001F07EFA7020ADF814000120ADF8160020
:101240000020ADF81C0042F21070ADF81A00042026
:10125000ADF818000020ADF81E004FF48070ADF816
:1012600020000020ADF8220005A95A4801F020FF17
:101270000021584802F0F2FA4FF40060ADF8040083
:101280004010ADF806008010ADF80800CD20ADF894
:101290000A000020ADF80C004FF40050ADF80E002D
:1012A0004000ADF8100001A94A4802F051F90121AF
:1012B000484802F08DFA0021464802F089F90121E0
:1012C000444802F091F90DB000BD10B580213F48AF
:1012D00002F009FC10213D4802F0F3FB06213D48D5
:1012E00002F0F8FB00213B4802F0ACF910BD08B554
:1012F0000121882001F0D8FC0120ADF80000102069
:101300008DF8030003208DF8020069462E4801F095
:101310000FFA8020ADF800006946304801F008FA65
:101320004FF48070ADF8000069462C4801F000FAD7
:101330000121254801F0A9FA4FF4C071274801F0B6
:10134000A4FA08BD08B54FF4E06001F023F91C20B1
:101350008DF8000000208DF8010003208DF80200B8
:1013600001208DF80300684601F019F908BD0EB59B
:101370000121084601F0A5FC4FF47A70ADF8040095
:101380004720ADF800000020ADF80600ADF80200DF
:1013900069464FF0804001F0BFFD0121880702F04F
:1013A000DDFB01221146900702F02DF9012188078B
:1013B00002F00EF90021012001F083FC0EBD0000B7
:1013C0000004004000081A00000C0140002C0140FD
:1013D000000801400034014000100140001C0140A1
:1013E00010B5642816DB642290FBF2F230320A70EA
:1013F0000A2290FBF2F20A2392FBF3F403FB14227D
:1014000030324A700A2290FBF2F302FB13023032B0
:101410008A701FE00A2813DB20220A700A2290FB40
:10142000F2F20A2392FBF3F403FB142230324A70E7
:101430000A2290FBF2F302FB130230328A7009E0B9
:1014400020220A704A700A2290FBF2F302FB130278
:1014500030328A700022CA7010BD2DE9F04705466F
:101460000C46284603F0C0FF0A2190FBF1F0303013
:101470002070284603F0B8FF0A2190FBF1F201FB2F
:101480001200303060702E20A070284603F0ACFFB0
:10149000814603F0C5FF8046294604F0D9F8074687
:1014A000F94904F009F8064603F09EFF3030E07079
:1014B00000202071BDE8F08708210122F34B1A605B
:1014C0000022F34BC3F8B02113E000F080021AB100
:1014D0000122F04B1A6002E00022EE4B1A6001225A
:1014E000EC4B083B1A600022E94BC3F8B0214206DE
:1014F000100E0A00A1F10103D9B2E6D1704708210C
:101500000022E24B1A60E24BC3F8B02113E000F076
:1015100080021AB10122DF4B1A6002E00022DD4B8B
:101520001A600122DB4B083B1A600022D84BC3F83B
:10153000B0214206100E0A00A1F10103D9B2E6D192
:10154000704730B504460D4605F1B001C8B2FFF74B
:10155000D6FF102141EA1410FFF7D1FF04F00F016C
:1015600041F00100FFF7CBFF30BD2DE9F043064607
:101570000F46904600250024A14631E018F80900E6
:101580002038C5B2782E02DD0026781CC7B2394655
:101590003046FFF7D6FF002407E004EB0511BE4AF2
:1015A000505CFFF789FF601CC4B2082CF5DB781C87
:1015B000C1B23046FFF7C5FF002408E004EB051177
:1015C0000831B54A505CFFF777FF601CC4B2082CA5
:1015D000F4DB06F10800C6B209F1010000F0FF09D2
:1015E00018F809000028C9D1BDE8F0832DE9F043BF
:1015F00081460F4690460024002601256BE000241A
:10160000012513E0A548005D18F8061088420BD1AB
:10161000A249601C095C701C18F80000814203D1CB
:10162000C4EBC400450005E0A01CC4B29B48005DAB
:101630007F28E7DC00BFB9F1760F03DD4FF000092A
:10164000781CC7B239464846FFF77BFF012D1FD0F3
:1016500039464846FFF775FF002406E09049485D8B
:10166000FFF72AFF6D1C601CC4B20E2CF6DB781C41
:10167000C1B24846FFF765FF002406E08849485D8F
:10168000FFF71AFF6D1C601CC4B20E2CF6DB1CE0C9
:10169000701CC6B239464846FFF753FF002404E0E9
:1016A0000020FFF709FF601CC4B2102CF8DB781C87
:1016B000C1B24846FFF745FF002404E00020FFF7D1
:1016C000FBFE601CC4B2102CF8DB09F10E0000F028
:1016D000FF09B01CC6B218F8060000288FD1BDE87B
:1016E000F083F8B506460F461546002427E0285D2E
:1016F0007F2814DD285D8DF80000601C285C8DF8C3
:10170000010000208DF802006A4639463046FFF796
:101710006DFF06F10E00C6B2A01CC4B20FE0285D3A
:101720008DF8000000208DF801006A4639463046E9
:10173000FFF71BFF06F10800C6B2601CC4B2285DAB
:101740000028D4D1F8BD10B556A200210846FFF7F5
:10175000C8FF56A200212320FFF7C3FF5549564872
:101760000068FFF73DFE554955480068FFF775FED4
:1017700054A202210020FFF7B4FF4E4A0221242088
:10178000FFF7AFFF51A202213E20FFF7AAFF4B4A0D
:1017900002216020FFF7A5FF4E494F480068FFF780
:1017A0001FFE4E494E480068FFF71AFE4DA2042165
:1017B0000020FFF796FF474A04212B20FFF791FFF7
:1017C0004AA204214820FFF78CFF444A04216420E8
:1017D000FFF787FF47A200214420FFF782FF47A2BF
:1017E00000216920FFF77DFF10BD10B53149324857
:1017F0000068FFF7F5FD314931480068FFF72DFE1D
:101800003F48006840B93F48006828B927A2002136
:101810002320FFF766FF08E039480068012804D15B
:1018200039A200212320FFF75CFF224A0221242055
:10183000FFF757FF214A02216020FFF752FF254999
:1018400025480068FFF7CCFD244925480068FFF7CC
:10185000C7FD204A04212B20FFF743FF1F4A042124
:101860006420FFF73EFF10BD012800DA01200021AF
:1018700007E0002200E0521C40F6A6739A42FADB11
:10188000491C8142F5DB704700002041B4812142B0
:1018900000802342B881234225600008665A000870
:1018A000C95A0008CAE4B3F63A000000CDA3D6B97D
:1018B0000000000055000020080000205900002012
:1018C00000000020B5E7D1B93A000000C6B5C2CA91
:1018D0003A0000005E0000201C0000206200002092
:1018E00020000020C2F6B3E5CAFD0000B2BDB3A4DB
:1018F00000000000CDF8C2E73A000000CEDE000094
:101900001000002014000020C6F4B6AF0000000054
:1019100070B50646002415E004F1B001C8B2FFF727
:10192000EEFD0120FFF7EBFD1020FFF7E8FD00259D
:1019300004E03046FFF7C0FD681CC5B2802DF8DB1F
:10194000601CC4B2082CE7DB70BD30B5002415E084
:1019500004F1B001C8B2FFF7D2FD0120FFF7CFFDBF
:101960001020FFF7CCFD002504E00020FFF7A4FDC8
:10197000681CC5B2802DF8DB601CC4B2082CE7DB04
:1019800030BD07E040F2375100BF0A00A1F101016C
:10199000FBD1401E0028F5D1704708B501214FF456
:1019A000C47001F081F94FF4A040ADF800001020A0
:1019B0008DF8030002208DF802006946704800F09F
:1019C000B7FE0120ADF8000069466E4800F0B0FE99
:1019D0004FF40050ADF8000069466B4800F0A8FED7
:1019E00001206A49086000206949C1F8800132205D
:1019F000FFF7C7FF012067490860AE20FFF77FFDB2
:101A00000020FFF77CFD1020FFF779FD4020FFF755
:101A100076FD8120FFF773FDCF20FFF770FDA12039
:101A2000FFF76DFDCF20FFF76AFDA620FFF767FDEA
:101A3000A820FFF764FD3F20FFF761FDD320FFF7EB
:101A40005EFD0020FFF75BFDD520FFF758FD8020ED
:101A5000FFF755FDD920FFF752FDF120FFF74FFDAD
:101A6000DA20FFF74CFD1220FFF749FDDB20FFF7DE
:101A700046FD4020FFF743FD2020FFF740FD0220F8
:101A8000FFF73DFD8D20FFF73AFD1420FFF737FDEE
:101A9000A420FFF734FDA620FFF731FDAF20FFF7AC
:101AA0002EFD0020FFF734FF00210846FFF749FD17
:101AB00008BD2DE9F0430446884615464FF000095D
:101AC0000026002720E0E85D203800F0FF097E2C8A
:101AD00004DD002408F1010000F0FF084146204623
:101AE000FFF72FFD002609E009EB49012A4A02EB26
:101AF0004101885DFFF7E0FC701CC6B2062EF3DBE7
:101B0000A01DC4B2781CC7B2E85D0028DBD1BDE8D7
:101B1000F08370B505460C462046E11704EB517181
:101B2000C910A4EBC10201219140CEB2B02101EB5A
:101B3000E401C8B2FFF7E3FC102141EA1510FFF7FA
:101B4000DEFC05F00F00FFF7DAFC3046FFF7B4FCCF
:101B500070BD70B504460D46FF26B02101EBE501CE
:101B6000C8B2FFF7CCFC102141EA1410FFF7C7FC04
:101B700004F00F00FFF7C3FC3046FFF79DFC70BD7B
:101B8000001C014000200140000C0140B0812342B4
:101B900000002442800124423E5800082DE9F04113
:101BA00004464FF47A77A0460020FE49086000BF43
:101BB0002021FD4802F094F90028F9D080E0FB488C
:101BC000008878434FF0E021486100208861084692
:101BD000006940F00100086100BF2021F24802F0D6
:101BE0007FF9012858D1F04802F010F9C6B2F04848
:101BF000EC4909684654EB490968405C4B2817D109
:101C0000E8480068012813DBE6480068401EE84900
:101C1000085C4F280CD14FF0E020006920F0010053
:101C20004FF0E0210861002088610120BDE8F081CB
:101C3000DF48DC490968405C522827D1D948006850
:101C4000042823DBD7480068401ED949085C4F2888
:101C50001CD1D4480068801E085C522816D1D14897
:101C60000068C01E085C522810D1CE480068001FD2
:101C7000085C45280AD14FF0E020006920F00100FF
:101C80004FF0E021086100208861CFE7A046C548F9
:101C90000068401CC34908604FF0E020056905F06A
:101CA000010018B105F48030002896D04FF0E020F4
:101CB000006920F001004FF0E021086100208861F8
:101CC0005FEA0800A8F101087FF479AF00BFADE733
:101CD00010B5B8A200216920FFF703FDB6A20621C6
:101CE0000020FFF7FEFC4FF47A7000F0AAFB4FF4DF
:101CF0007A7000F0A6FB4FF47A7000F0A2FBB3A05C
:101D000002F04AF90A20FFF749FF012805D1B1A2E4
:101D100006210020FFF7E5FC0FE0B3A2062100201A
:101D2000FFF7DFFCB5A206210020FFF7DAFCB8A21E
:101D300000216920FFF7D5FC10BD4FF47A7000F048
:101D400080FBB4A206210020FFF7CBFCB6A002F076
:101D500023F90A20FFF722FF012805D1BAA20621A4
:101D60000020FFF7BEFC0FE0BCA206210020FFF719
:101D7000B8FCA2A206210020FFF7B3FCA4A2002118
:101D80006920FFF7AEFCD7E74FF47A7000F059FBFB
:101D9000B7A002F001F90A20FFF700FF012805D1E2
:101DA000BEA206210020FFF79CFC0FE0C0A2062186
:101DB0000020FFF796FC91A206210020FFF791FC7E
:101DC00093A200216920FFF78CFCB5E74FF47A70ED
:101DD00000F037FBBBA002F0DFF80A20FFF7DEFEC1
:101DE000012805D1ADA206210020FFF77AFC0FE003
:101DF000AFA206210020FFF774FC80A2062100207C
:101E0000FFF76FFC82A200216920FFF76AFC93E7CD
:101E10004FF47A7000F015FBB1A002F0BDF80A2073
:101E2000FFF7BCFE012805D19CA206210020FFF788
:101E300058FC0FE09EA206210020FFF752FC6FA283
:101E400006210020FFF74DFC71A200216920FFF759
:101E500048FC71E74FF47A7000F0F3FAA4A002F0A6
:101E60009BF80A20FFF79AFE012805D1A6A20621B9
:101E70000020FFF736FC0FE0A8A206210020FFF7A4
:101E800030FC5EA206210020FFF72BFC60A200219F
:101E90006920FFF726FC4FE74FF47A7000F0D1FA83
:101EA000A3A002F079F80A20FFF778FE012805D1F7
:101EB000A6A206210020FFF714FC0FE0A8A206212D
:101EC0000020FFF70EFC4DA206210020FFF709FCC1
:101ED0004FA200216920FFF704FC2DE74FF47A7030
:101EE00000F0AFFAA3A002F057F80A20FFF756FE61
:101EF000012805D1AAA206210020FFF7F2FB05E088
:101F0000ACA206210020FFF7ECFB15E74FF47A7036
:101F100000F097FAACA200216920FFF7E2FBABA228
:101F200006210020FFF7DDFB012240F225511E486B
:101F300001F007FF00BFFFE62DE9F0414FF47A768C
:101F40000A2700201749086040F22551164801F081
:101F5000DDFF002824D0002240F22551124801F074
:101F6000F0FED3E11148008870434FF0E021486152
:101F7000002088610846006940F00100086100BF48
:101F80002021094801F0ACFF01280AD1064801F0E0
:101F90003DFFC5B2064803490968455401491FE1A0
:101FA000B9E19EE170000020004800407E00002062
:101FB000A019002041540000B3F5CABCBBAF57497B
:101FC0004649C4A3BFE9D6D02000000041544530A3
:101FD0000D0A0000436C6F73652D2D73686F772DAC
:101FE0002D2D4F4B00000000576946692D496E6941
:101FF000742D2D4552524F5200000000574946495A
:102000002DB3F5CABCBBAF2DCAA7B0DC20000000C1
:102010004E4F0000D5FDD4DAC1ACBDD35769466937
:102020002E2E2E202000000041542B43574A4150B1
:102030003D224D6F6E2D5043222C223331373030EC
:1020400030303030220D0A00576946692D2D41632A
:10205000636573732D2D4F4B0000000057494649AF
:102060002D2D2D2D2D2D2D4552524F5200000000AB
:1020700041542B43575341503D226C6966742D7077
:10208000726F6A656374222C226C616263617431C1
:102090003237222C312C342C340D0A004164206854
:1020A0006F632D2D496E69742D2D4F4B000000007C
:1020B0004164686F632D496E69742D4552524F52C9
:1020C0000000000041542B43495041503D2231391A
:1020D000322E3136382E342E31220D0A0000000007
:1020E00041542B4349504D55583D310D0A000000D5
:1020F00041542B4349505345525645523D312C389B
:102100003038380D0A0000005365727665722D2D47
:10211000496E69742D2D4F4B000000005365727697
:1021200065722D496E69742D4552524F5200000060
:1021300041542B50494E473D223131352E32382EF5
:102140003134372E313737220D0A000050696E675F
:102150002D2D5365727665722D2D4F4B00000000BA
:1021600050696E675365727665722D4552524F52B3
:102170000000000041542B43495053544152543DF8
:10218000302C22544350222C223131352E32382E1D
:102190003134372E313737222C38300D0A00000009
:1021A000436F6E6E6563742D53657665722D4F4B6C
:1021B00000000000436F6E2D53657665722D2D452E
:1021C00052524F52000000004F4B00005749464901
:1021D000202D20B3F5CABCBBAFB3C9B9A60000001F
:1021E0000968405C54283CD166480068062838DB02
:1021F00064480068401E6449085C432831D1614846
:102200000068801E085C45282BD15E480068C01E0F
:10221000085C4E2825D15B480068001F085C4E28EA
:102220001FD158480068401F085C4F2819D15548F5
:102230000068801F085C432813D14FF0E02000693C
:1022400020F001004FF0E0210861002088610120AA
:102250004E4908604EA206210020FFF742FABDE871
:10226000F081494847490968405C522833D14548C4
:10227000006804282FDB43480068401E4249085C80
:102280004F2828D13F480068801E085C522822D180
:102290003C480068C01E085C52281CD139480068C0
:1022A000001F085C452816D14FF0E020006920F09F
:1022B00001004FF0E0210861002088613349086087
:1022C00038A20621FFF70DFA012240F225513A48C3
:1022D00001F037FDC3E70A272A480068401C294956
:1022E00008604FF0E020046904F0010020B104F41C
:1022F000803000283FF444AE4FF0E020006920F029
:1023000001004FF0E0210861002088613800A7F14A
:1023100001077FF427AE00201C490860012240F22B
:102320002551254801F00DFD00BF98E710B50620A6
:10233000224908600020134908602149086000BF55
:10234000204800680028FBD016E04FF47A7000F0B7
:1023500078F81A480068401E184908600846006866
:1023600008B9002010BD17480068022804D10020D9
:10237000144908600120F5E7124800680128E4D0FC
:102380000120EFE770000020A01900206800002065
:10239000574946492DB4D3BBFAC1ACBDD3B3C9B973
:1023A000A6000000574946492DB4D3BBFAC1ACBDC5
:1023B000D3CAA7B0DC000000004800407400002031
:1023C0006C0000207800002010B56FF0040000F0D1
:1023D00030F92E4800682E49B0FBF1F02D49087005
:1023E0000846007800EB4001C1EBC0104FF6FF71CA
:1023F00001EAC0002849088010BD0146254A12782C
:102400004A434FF0E0235A6100229A611A4612694A
:1024100042F001021A6100BF4FF0E022106900F0A3
:1024200001021AB100F48032002AF5D04FF0E02208
:10243000126922F001024FF0E0231A6100229A6132
:1024400070470146144A12884A434FF0E0235A610C
:1024500000229A611A46126942F001021A6100BF15
:102460004FF0E022106900F001021AB100F480324E
:10247000002AF5D04FF0E022126922F001024FF05D
:10248000E0231A6100229A6170470000400000209A
:1024900000127A008000002082000020014600BF68
:1024A000704700BF294A128802F04002002AF9D082
:1024B000C2B2264B1B1D1A80704710B586B0044669
:1024C0000121880400F0FDFB0121082000F0ECFB55
:1024D0004FF48060ADF8140003208DF8160018202A
:1024E0008DF8170005A91A4800F022F94FF4006092
:1024F000ADF8140004208DF8170005A9144800F069
:1025000017F927208DF8000002208DF801008DF8C2
:10251000020001208DF80300684600F040F80194A5
:102520000020ADF80800ADF80A00ADF80C00ADF8D9
:1025300010000C20ADF80E0001A9044801F069FB61
:102540000121024801F0F1FB06B010BD0048004037
:10255000000C01400948804709480047FEE7FEE7B4
:10256000FEE7FEE7FEE7FEE7FEE7FEE7FEE7FEE743
:1025700004480549054A064B704700001309000846
:1025800031010008C81A0020C8200020C81C002003
:10259000C81C002031490143314A1160704770B5B1
:1025A000002100230F22C47804B32D4C246804F4C6
:1025B000E064C4F5E064210AC1F10403CA40447830
:1025C00004FA03F18478144021430901254C06786C
:1025D000A155047804F01F050124AC4005786D1165
:1025E000AD0005F1E025C5F8004109E0047804F0EC
:1025F0001F050124AC401C4D0678761145F8264095
:1026000070BD1A4A0A400243154B1B1F1A607047DF
:1026100039B1134A121D12680243114B1B1D1A6077
:1026200006E00F4A121D126882430D4B1B1D1A60F3
:102630007047042808D14FF0E021096941F00401F6
:102640004FF0E022116107E04FF0E021096921F02D
:1026500004014FF0E0221161704700000000FA050C
:102660000CED00E000E400E080E100E080FFFF1FEF
:1026700010B50446CC48844208D10121042000F062
:102680002DFB0021042000F029FB46E0C7488442CE
:1026900008D10121082000F021FB0021082000F0D2
:1026A0001DFB3AE0C248844208D10121102000F00D
:1026B00015FB0021102000F011FB2EE0BD488442E4
:1026C00008D10121202000F009FB0021202000F08A
:1026D00005FB22E0B848844208D10121402000F0E7
:1026E000FDFA0021402000F0F9FA16E0B3488442D8
:1026F00008D10121802000F0F1FA0021802000F0B3
:10270000EDFA0AE0AE48844207D10121801500F0BD
:10271000E5FA0021A01500F0E1FA10BD10B5012185
:10272000084600F0DBFA0021012000F0D7FA10BDC6
:102730002DE9F04102460025002600200023002458
:10274000002791F803C00CF00F0591F803C00CF0BE
:10275000100CBCF1000F03D091F802C04CEA050543
:1027600091F800C0BCF1000F31D0146800202BE0BC
:102770004FF0010C0CFA00F3B1F800C00CEA0306AC
:102780009E4220D183004FF00F0C0CFA03F7BC439C
:1027900005FA03FC4CEA040491F803C0BCF1280FCD
:1027A00006D14FF0010C0CFA00FCC2F814C00AE08C
:1027B00091F803C0BCF1480F05D14FF0010C0CFAA1
:1027C00000FCC2F810C0401C0828D1D31460B1F836
:1027D00000C0BCF1FF0F34DD546800202EE000F192
:1027E000080C4FF0010808FA0CF3B1F800C00CEA2D
:1027F00003069E4221D183004FF00F0C0CFA03F721
:10280000BC4305FA03FC4CEA040491F803C0BCF194
:10281000280F05D100F1080C08FA0CF8C2F8148052
:1028200091F803C0BCF1480F07D100F1080C4FF03C
:10283000010808FA0CF8C2F81080401C0828CED312
:102840005460BDE8F0814FF6FF7101800221817074
:102850000421C17070470246002093680B400BB101
:10286000012000E0002070470146886880B2704770
:1028700002460020D3680B400BB1012000E000208D
:1028800070470146C86880B2704701617047416176
:1028900070470AB1016100E041617047C160704753
:1028A0004FF480320A438261816182618269826968
:1028B000704702460020434B18684FF6807318405B
:1028C00040EA021008433F4B186070473E49C86118
:1028D0007047F0B50A46002300240021002500F0CF
:1028E0000046B6F1004F02D1364EF16901E0354E97
:1028F0007168C0F3034583B200F44016B6F5401F7B
:1029000008D121F070612F4E766826F070662D4F49
:102910007E6012E000F48016B6F5801F06D1032613
:1029200006FA05F4A14341F0706106E0460D360158
:1029300003FA06F6B14341F0706122B1460D36014B
:1029400003FA06F6314300F00046B6F1004F02D11B
:102950001C4EF16101E01B4E7160F0BD30B50022EC
:102960008B071C0F0F2303FA04F2164B08338C104D
:1029700053F824309343134C08348D1044F8253019
:1029800023468C1053F824308C07240F00FA04F4EB
:1029900023430C4C08348D1044F8253030BD0A49CF
:1029A000DC3108607047000000080140000C014065
:1029B000001001400014014000180140001C0140BB
:1029C000002001400000014000002042DF48006874
:1029D00040F00100DD49086008464068DC490840D5
:1029E000DA49486008460068DA490840D749086073
:1029F0000846006820F4802008600846406820F4FB
:102A0000FE0048604FF41F0088607047CF49096896
:102A100021F48031CD4A11601146096821F48021EA
:102A20001160B0F5803F03D0B0F5802F0ED106E0E5
:102A3000C649096841F48031C44A116007E0C349BE
:102A4000096841F4A021C14A116000E000BF00BF45
:102A5000704710B501460022002300204A11012AC8
:102A600002D1BA4C236806E0022A02D1B74C236A8D
:102A700001E0B64C636A01F01F02012494401C403F
:102A80000CB1012000E0002010BD38B500200090FE
:102A90000024002500BF3120FFF7DBFF054600982A
:102AA000401C00900098B0F5A06F01D0002DF2D02E
:102AB0003120FFF7CEFF08B1012400E000242046BA
:102AC00038BD01460020A14A106820F0F80040EA15
:102AD000C10010607047A04908607047024600209E
:102AE0009A4B586820F47C1042EA01031843974B34
:102AF0005860704798490866704701460020934A1D
:102B0000506820F003000843506070478F484068C9
:102B100000F00C007047014600208C4A506820F0FD
:102B2000F00008435060704701460020874A506813
:102B300020F4E06008435060704701460020834A5B
:102B4000506820F4605040EAC1005060704729B1DD
:102B50007E4A527A02437D4B5A7204E07B4A527A93
:102B600082437A4B5A7270477B49D831086070476C
:102B700001460020754A506820F4404008435060E8
:102B800070470021714A20321170704A82F820107B
:102B9000012802D004280AD104E001216B4A203226
:102BA000117005E00521694A2032117000E000BF74
:102BB00000BF70476949086070476449096A01436A
:102BC000624A11627047654944390860704730B500
:102BD00000210022002400235C4D6D6805F00C01EB
:102BE00021B1042905D0082923D105E05C4D0560F9
:102BF00022E05B4D05601FE0544D6D6805F47012D6
:102C0000524D6D6805F48034022505EB92421CB9E3
:102C1000544D554305600BE04C4D6D6805F400358F
:102C20001DB1504D5543056002E04D4D55430560C3
:102C300002E04B4D056000BF00BF444D6D6805F0DC
:102C4000F0010909484D6B5C0568DD4045603F4D6A
:102C50006D6805F4E061090A434D6B5C4568DD4031
:102C600085603A4D6D6805F46051C90A3E4D6B5C54
:102C70004568DD40C560354D6D6805F44041890B00
:102C80003A4D6B5CC568B5FBF3F5056130BD29B104
:102C90002E4A526902432D4B5A6104E02B4A526975
:102CA00082432A4B5A61704729B1284A92690243EC
:102CB000264B9A6104E0254A92698243234B9A612C
:102CC000704729B1214AD2690243204BDA6104E0FE
:102CD0001E4AD26982431D4BDA61704729B11B4AF3
:102CE000D2680243194BDA6004E0184AD268824382
:102CF000164BDA60704729B1144A12690243134B2C
:102D00001A6104E0114A12698243104B1A6170473C
:102D100012494039086070470F49C86470470B4931
:102D2000C87170470948406A40F08070074948629E
:102D3000704701460020054A92680A400AB1012006
:102D400000E000207047014988727047001002407F
:102D50000000FFF8FFFFF6FE0000424280044242FE
:102D600000127A0000093D008A0000209A0000202D
:102D700010B50446FE48844208D10121C014FFF773
:102D8000ADFF0021E014FFF7A9FFC4E0B4F1804FCC
:102D900008D101210846FFF7AEFF00210120FFF70F
:102DA000AAFFB8E0F348844208D101210220FFF7CE
:102DB000A2FF00210220FFF79EFFACE0EE48844214
:102DC00008D101210420FFF796FF00210420FFF71E
:102DD00092FFA0E0E948844208D101210820FFF7D2
:102DE0008AFF00210820FFF786FF94E0E448844230
:102DF00008D101211020FFF77EFF00211020FFF7EE
:102E00007AFF88E0DF48844208D101212020FFF7C3
:102E100072FF00212020FFF76EFF7CE0DA48844239
:102E200008D101214014FFF759FF00216014FFF77A
:102E300055FF70E0D548844209D10121C804FFF74D
:102E40004DFF00214FF40020FFF748FF63E0D0481A
:102E5000844209D101210805FFF740FF00214FF40A
:102E60008010FFF73BFF56E0CA48844209D1012198
:102E70004805FFF733FF00214FF40010FFF72EFF46
:102E800049E0C548844208D101214020FFF733FFC3
:102E900000214020FFF72FFF3DE0C048844208D1C9
:102EA00001218020FFF727FF00218020FFF723FF6B
:102EB00031E0BB48844208D101218015FFF71BFF98
:102EC0000021A015FFF717FF25E0B648844209D17D
:102ED00001210804FFF702FF00214FF48030FFF7C3
:102EE000FDFE18E0B048844209D101214804FFF7F3
:102EF000F5FE00214FF40030FFF7F0FE0BE0AB4889
:102F0000844208D101218804FFF7E8FE00214FF434
:102F10008020FFF7E3FE10BD00220288944B984208
:102F20000ED0994B98420BD0B0F1804F08D0914B06
:102F3000984205D0904B984202D0904B984204D1D1
:102F40004FF68F731A404B881A438D4B984207D027
:102F50008C4B984204D04FF6FF431A40CB881A435B
:102F600002808B8883850B880385814B98420BD028
:102F7000854B984208D08B4B984205D08A4B98429B
:102F800002D08A4B984201D10B7A038601238382B7
:102F9000704770B5002400220023058C4FF6FE76A2
:102FA00035400584028C8388048B4FF68F752C4046
:102FB000B51E2C400D882C43751E2A400D892A43CE
:102FC0004D882A436A4DA8420BD06F4DA84208D0C5
:102FD000744DA84205D0744DA84202D0734DA8424A
:102FE00013D14FF6F7752A404D892A434FF6FB75EA
:102FF0002A408D882A434FF6FF652B404FF6FF5538
:103000002B408D892B43CD892B4383800483CD882E
:103010008586028470BD70B5002400220023058CD3
:103020004FF6EF7635400584028C8388048B48F692
:10303000FF752C404FF6FF452C400D884FF6FF766C
:1030400006EA05252C434FF6DF752A400D8906EA6E
:1030500005152A434D8806EA05152A43444DA84222
:1030600002D0494DA8421DD14FF67F752A404D89A7
:103070004FF6FF7606EA05152A434FF6BF752A403C
:103080008D8806EA05152A434FF6FF352B404FF28F
:10309000FF752B408D8906EA85052B43CD8906EA0D
:1030A00085052B4383800483CD880587028470BD0A
:1030B00070B5002400220023058C4FF6FF663540D2
:1030C0000584028C8388848B4FF68F752C404FF6D5
:1030D000FC752C400D882C434FF6FF552A400D8976
:1030E0004FF6FF7606EA05252A434D8806EA0525B0
:1030F0002A431F4DA84202D0234DA8421DD14FF2B2
:10310000FF752A404D894FF6FF7606EA05252A43CA
:103110004FF6FF352A408D8806EA05252A434EF6EC
:10312000FF752B404DF6FF752B408D8906EA05157E
:103130002B43CD8906EA05152B4383808483CD88F4
:103140008587028470BD70B5002200230024058CA1
:103150004EF6FF7635400584038C8488828B48F6D2
:10316000FF752A404FF6FF452A400D8820E00000F9
:10317000002C01400004004000080040000C00400A
:10318000001000400014004000340140004C014099
:10319000005001400054014000180040001C004055
:1031A0000020004000400140004401400048014030
:1031B0004FF6FF7606EA05252A434DF6FF752B40AC
:1031C0000D8906EA05352B434D8806EA05352B4364
:1031D000FA4DA84202D0FA4DA84208D14BF6FF752D
:1031E0002C408D894FF6FF7606EA85152C438480A6
:1031F0008283CD88A0F84050038470BD828B4FF24B
:10320000FF331A408283828B4FF6FF7303EA012358
:103210001A4382837047F0B50C4615460022002100
:103220000026078C4EF6FF7C07EA0C070784828B8A
:10323000018C4FF6FF7707EA043640F6FF473A4025
:103240004FF6FF7707EA05273A434FF6FF7707EA7D
:1032500003373A43D94FB8420ED0D94FB8420BD0BA
:10326000B0F1804F08D0D74FB84205D0D64FB84202
:1032700002D0D64FB84206D14DF6FF77394046F41A
:103280008057394305E047F6FF57394044F48057EB
:10329000394382830184F0BD828B4FF6F3731A4069
:1032A0008283828B0A4382837047F0B50C461546B1
:1032B000002200210026078C4FF6FF6C07EA0C075E
:1032C0000784828B018C4FF6FF7707EA04264FF6BE
:1032D0000C773A404FF6FF7707EA03172F433A433C
:1032E000B64FB8420ED0B64FB8420BD0B0F1804FB7
:1032F00008D0B44FB84205D0B34FB84202D0B34F54
:10330000B84206D14FF6FF57394046F4807739432B
:1033100005E04FF2FF57394044F480773943828308
:103320000184F0BD028B4FF2FF331A400283028BFF
:103330004FF6FF7303EA01231A4302837047F0B587
:103340000C461546002200210026078C4FF6EF7C24
:1033500007EA0C070784028B018C4FF6FF7707EA18
:10336000041640F6FF473A404FF6FF7707EA033767
:103370003A434FF6FF7707EA05273A438F4FB842A3
:103380000ED08F4FB8420BD0B0F1804F08D08D4F88
:10339000B84205D08C4FB84202D08C4FB84206D10B
:1033A0004FF6DF77394046F01007394305E04FF616
:1033B0005F77394044F01007394302830184F0BD40
:1033C000028B4FF6F3731A400283028B0A43028387
:1033D0007047F0B50C46154600220021068C4FF6CA
:1033E000FE773E400684028B018C4FF60C7632400D
:1033F0007E1C06EA03162E433243704EB0420ED0B6
:103400006F4EB0420BD0B0F1804F08D06D4EB0423D
:1034100005D06D4EB04202D06C4EB04206D14FF690
:10342000FD76314044F00106314305E04FF6F57674
:10343000314044F00106314302830184F0BD70B590
:1034400005460C465D4885420ED05D4885420BD04E
:10345000B5F1804F08D05B48854205D05A48854277
:1034600002D05A48854200D100E000BF208850B900
:103470002389A28861882846FFF7ABFFE1882846A8
:10348000FFF79EFF25E0208804280AD12389A2881F
:1034900061882846FFF753FFE1882846FFF742FF7F
:1034A00017E0208808280AD12389A2886188284645
:1034B000FFF7FBFEE1882846FFF7EEFE09E02389CF
:1034C000A28861882846FFF7A6FEE1882846FFF714
:1034D00095FE70BD2DE9F04105460C4600260127FA
:1034E000608808B9022600E00026A088012801D1E2
:1034F000022700E001272088A0B92389A2886188DB
:103500002846FFF766FFE1882846FFF759FF238921
:103510003A4631462846FFF712FFE1882846FFF772
:1035200001FF13E02389A28861882846FFF707FF7F
:10353000E1882846FFF7F6FE23893A4631462846B9
:10354000FFF747FFE1882846FFF73AFFBDE8F08123
:103550000A884B881A438B881A43CB881A430B89F5
:103560001A434B891A438B891A43A0F844207047A9
:103570004FF6FF71818000210180C180418001727E
:1035800070470021018041808180C180018141819B
:103590008181C181704700210180418001218180AA
:1035A0000021C1800181704700210180418081801C
:1035B000C18001814181818170470000002C014060
:1035C000003401400004004000080040000C0040AE
:1035D00021B1028842F00102028004E002884FF625
:1035E000FE731A400280704731B1B0F8442042F4B3
:1035F0000042A0F8442005E0B0F84420C2F30E02D7
:10360000A0F8442070471AB183890B43838102E0FC
:1036100083898B43838170478182704741EA02032B
:10362000A0F8483070471AB183890B43838102E0C8
:1036300083898B438381704701894FF6F87211406B
:10364000018170470A46002101894FF68F731940A6
:1036500011430181704730B504460D462946204686
:10366000FFF7F0FF208940F00700208130BD2DE9F1
:10367000F04104460D4616461F46602D06D13B46D6
:10368000012231462046FFF75AFE05E03B46012263
:1036900031462046FFF79DFE29462046FFF7D2FF20
:1036A000208940F007002081BDE8F08130B50C464C
:1036B00000210189C9B24FF6FF7505EA03251543BC
:1036C00025432943018130BD2DE9F04105460E46D1
:1036D00017469846002443463A4631462846FFF7A7
:1036E000E5FF2C894FF6F870044044F007044FF6CC
:1036F0008F70044044F070042C81BDE8F081F0B577
:1037000004460D4616461F463B463246294620468D
:10371000FFF7CCFF208940F480402081F0BD018577
:10372000828270470A46002101884FF68F73194044
:10373000114301807047F0B50C4615461E46002126
:10374000002200230189028B038C4FF6F877394061
:1037500021434FF6FC473A4040F201173A434FF6F7
:10376000DD773B404FF6FF7707EA06172F433B43D1
:10377000018102830384F0BD0A460021018B4FF6CC
:103780008F7319401143018370470A460021018B52
:1037900048F6FF7319404FF6FF7303EA02231943FB
:1037A000018370470A460021818B4FF68F731940C1
:1037B0001143818370470A460021818B48F6FF73CD
:1037C00019404FF6FF7303EA0223194381837047C0
:1037D00021B1028842F08002028004E002884FF6A4
:1037E0007F731A400280704721B1828842F0040240
:1037F000828004E082884FF6FB731A408280704713
:1038000021B1828842F00802828004E082884FF66B
:10381000F7731A408280704721B1828842F001021A
:10382000828004E082884FF6FE731A4082807047DF
:103830000A460021018B4FF6F773194011430183AB
:1038400070470A460021018B4FF2FF7319404FF673
:10385000FF7303EA02231943018370470A460021DC
:10386000818B4FF6F77319401143818370470A46E5
:103870000021818B4FF2FF7319404FF6FF7303EA6B
:1038800002231943818370470A460021018B4FF6BA
:10389000FB7319401143018370470A460021018BD5
:1038A0004FF6FF3319404FF6FF7303EA0223194323
:1038B000018370470A460021818B4FF6FB73194044
:1038C0001143818370470A460021818B4FF6FF33F5
:1038D00019404FF6FF7303EA0223194381837047AF
:1038E0000A460021018B4FF67F7319401143018373
:1038F00070470A460021018BC1F30E014FF6FF739A
:1039000003EA02231943018370470A460021818B91
:103910004FF67F7319401143818370470A46002197
:10392000818BC1F30E014FF6FF7303EA02231943A3
:10393000818370470A460021018C4FF6FD731940C0
:103940001143018470470A460021018C4FF6F7733A
:1039500019401143018470470A460021018C4FF63B
:10396000DF7319404FF6FF7303EA02131943018412
:1039700070470A460021018C4FF67F7319404FF6BD
:10398000FF7303EA02131943018470470A460021BA
:10399000018C4FF6FF5319404FF6FF7303EA0223E1
:1039A0001943018470470A460021018C4FF2FF73CE
:1039B00019404FF6FF7303EA02231943018470474D
:1039C0000A460021018C4DF6FF7319404FF6FF7334
:1039D00003EA023319430184704730B50023012400
:1039E0008C40A3B2048C9C430484048C02FA01F53D
:1039F000ADB22C43048430BD30B5002304248C4088
:103A0000A3B2048C9C430484048C02FA01F5ADB289
:103A10002C43048430BD70B50346002000241846B2
:103A2000183001258D40ACB21D8CA5431D8409B111
:103A3000082909D100EB6100056825F070050560D3
:103A40000568154305600EE00D1FC5F34E052844BB
:103A5000056825F4E045056005684FF6FF7606EA3F
:103A600002263543056070BD21B1028842F0020292
:103A7000028004E002884FF6FD731A40028070470E
:103A800021B1028842F00402028004E002884FF66D
:103A9000FB731A400280704721B1828842F0800295
:103AA000828004E082884FF67F731A4082807047DC
:103AB00002884FF6F7731A40028002880A43028098
:103AC000704782884FF68F731A40828082880A433B
:103AD0008280704702894FF6F8731A40028102898A
:103AE0000A430281704702894FF67F731A400281B0
:103AF00002890A430281704781847047818570473B
:103B0000818670470187704781877047A0F8401011
:103B1000704702884FF6FF431A40028002880A432A
:103B2000028070470146888E70470146088F7047B3
:103B30000146888F70470146B1F840007047014642
:103B4000888C70470146088D704702460020138A12
:103B50000B400BB1012000E000207047CA430282F5
:103B6000704730B50246002000230024158A05EA7C
:103B70000103958905EA010413B10CB1012000E0AD
:103B8000002030BDCA4302827047000010B50446D1
:103B9000FB48844209D101218803FFF79FF80021E7
:103BA0004FF48040FFF79AF832E0F648844209D19A
:103BB00001214804FFF79FF800214FF40030FFF780
:103BC0009AF825E0F048844209D101218804FFF7E2
:103BD00092F800214FF48020FFF78DF818E0EB48B1
:103BE000844209D10121C804FFF785F800214FF470
:103BF0000020FFF780F80BE0E548844208D101215E
:103C00000805FFF778F800214FF48010FFF773F8EC
:103C100010BD2DE9F04786B005460E460024A246A9
:103C200000BFA1460027B08900B100BF2F462C8AF3
:103C30004CF6FF700440F08804432C82AC894EF6A9
:103C4000F3100440B0883189084371890843044364
:103C5000AC81AC8A4FF6FF400440B0890443AC828B
:103C600001A8FEF7B4FFC648874202D1DDF810A0D4
:103C700001E0DDF80CA0A88900F4004040B10AEB97
:103C8000CA0000EB0A1031684900B0FBF1F807E008
:103C90000AEBCA0000EB0A1031688900B0FBF1F8AA
:103CA0006420B8FBF0F004012009642101FB1089B5
:103CB000A88900F4004040B1322000EBC900B0FBFD
:103CC000F1F000F00700044308E0322000EB091097
:103CD0006421B0FBF1F000F00F0004432C8106B02A
:103CE000BDE8F0874FF41651016000218180C1804A
:103CF00001810C21418100218181704710B502466C
:103D00000020108A4FF2FF0318400B884C88234391
:103D10008C882343CC8823431843108210BD002194
:103D2000018041808180C180704721B1828942F445
:103D30000052828104E082894DF6FF731A4082812D
:103D40007047F0B50346002400260025002040F609
:103D50006A17B94200D100BF1846C1F3421401F0FE
:103D60001F06012707FA06F5012C01D10C3004E0EB
:103D7000022C01D1103000E014301AB107682F4333
:103D8000076002E00768AF430760F0BD1AB1838A9D
:103D90000B43838202E0838A8B4383827047028ACB
:103DA0004FF6F0731A400282028A0A430282704779
:103DB00082894FF2FF731A40828182890A4382818D
:103DC000704721B1828942F00202828104E0828937
:103DD0004FF6FD731A4082817047028A4FF6DF73F7
:103DE0001A400282028A0A430282704721B1028A83
:103DF00042F48042028204E0028A4BF6FF731A40CA
:103E000002827047C1F308028280704701468888A9
:103E1000C0F308007047818941F00101818170473A
:103E2000028BD2B20283028B42EA012202837047E4
:103E3000028B02F47F420283028B0A4302837047A3
:103E400021B1828A42F02002828204E0828A4FF607
:103E5000DF731A408282704721B1828A42F01002D9
:103E6000828204E0828A4FF6EF731A4082827047A2
:103E700021B1828A42F00802828204E0828A4FF6EF
:103E8000F7731A408282704721B1828942F400425E
:103E9000828103E08289C2F30E028281704721B1E0
:103EA000828A42F40062828204E0828A4FF2FF73C7
:103EB0001A4082827047828A4FF6FB731A408282D0
:103EC000828A0A438282704721B1828A42F00202CA
:103ED000828204E0828A4FF6FD731A408282704724
:103EE00002460020B1F5007F00D100BF13880B40CF
:103EF0000BB1012000E00020704701F40072B2F520
:103F0000007F00D100BFCA430280704770B50246EF
:103F1000002400230025002040F66A16B14200D19B
:103F200000BFC1F3421501F01F03012606FA03F397
:103F3000012D02D19689334006E0022D02D1168A66
:103F4000334001E0968A33400C12012606FA04F44D
:103F50001688344013B10CB1012000E0002070BD80
:103F600010B50022002340F66A14A14200D100BF20
:103F70000A1201249440A3B2DC43048010BD000067
:103F8000003801400044004000480040004C004020
:103F900000500040704700000FB4044910B503AA58
:103FA000029800F015F810BC5DF814FB84000020A6
:103FB000704770477047704710B500F01BF80068F5
:103FC00010BD10B5044600F015F8046010BD0000E7
:103FD000074B70B50D467B4400F015F804462846A3
:103FE00000F024F810B14FF0FF3070BD204670BDD6
:103FF000C9E4FFFF00487047681A002001694A1CA5
:1040000002610878704700B58FB0CDE90131002119
:10401000059105497944CDE903101146684600F041
:1040200032F80FB000BD0000E5FFFFFF007B00F09D
:104030008000704700487047681A00207546FFF7F7
:10404000F9FFAE4605006946534620F00700854655
:1040500018B020B5FEF78CFABDE820404FF00006FE
:104060004FF000074FF000084FF0000B21F0070160
:10407000AC46ACE8C009ACE8C009ACE8C009ACE8A3
:10408000C0098D4670472DE9F04106460024D6E967
:104090000170F5688046304603E04146B847641C2D
:1040A0003046A8470028F8D12046BDE8F0810446F4
:1040B000AFF300802046FCF782F8490050EAC120A7
:1040C00018BF04204A0D18BF40F0010040F2FF72F3
:1040D000B2EB515F08BF40F00200012808BF052085
:1040E000704700002DE9F74F144694B00021C4E951
:1040F00002111599079121F00045C9498D4206DC4E
:104100001599C4E9000117B00020BDE8F08FC5493A
:10411000DFF814A3A9423CDD0799C44E0029C44F1F
:10412000C44A1599534619DD00F018FF554506D0CD
:10413000C14AC24B00F012FFC4E900010AE04FF08F
:10414000D352BE4B00F00AFF32463B4600F006FF5A
:10415000C4E9000117B00120BDE8F08F00F064FB56
:10416000554506D0B44AB54B00F05EFBC4E90001EA
:104170000AE04FF0D352B14B00F056FB32463B46BB
:1041800000F052FBC4E9000117B04FF0FF30BDE86A
:10419000F08FAB49A942159978DB21F000418346A5
:1041A0008846A84AA84B00F0CFFD0022A74B00F09C
:1041B0003BFB00F041FD099000F09BFD06460F46D9
:1041C0009C4A534600F0C0FD43465A4600F0BAFEF2
:1041D00080468A46984A994B3046394600F0B4FDED
:1041E0002A0D01250B924246534600F0ABFE032DEB
:1041F000C4E9000139D00B98C1F30A51401A05EB0C
:1042000045111139814230DA9148C346784400EBB8
:104210000510CDF80CA00C90D0E9002330463946AB
:1042200000F092FD02460B46049106905846039911
:1042300000F094FE80468A4602460B465846039993
:1042400000F08CFE049B069A00F088FE83460C98D2
:1042500003913946D0E90223304600F075FD5A46F5
:10426000039B00F07BFE6D1CBDE707980028A2BFF2
:10427000099817B0BDE8F08F616881F00041616076
:10428000099817B04042BDE8F08FFFE784461598C3
:10429000C1F31301C0F30A50A0F2F5304FEA6018E1
:1042A00000F01F06C6F12000139000200690079032
:1042B00041F4801E05206D4676B1664A08EB000188
:1042C0007A4452F8213002EB8101B3404A681399D5
:1042D00022FA01F1194305E05F4908EB0002794435
:1042E00051F82210A1FB0E27A1FB0C131A449A428D
:1042F00034BF0123002303EB070A05EB8003D3E956
:1043000001B70F448F4234BF0121002193448B44F5
:1043100011B1934502D903E0934501D2012100E098
:104320000021C3E901B7514445F82010011EA0F156
:104330000100C1DC0298059F00F10050800F12902F
:104340000298DDE90356800000F0D3FC834628463E
:104350000D9100F0E5FC6FF01D0201F02AFACDE9A5
:104360000E01304600F0DCFC6FF03D0201F021FA56
:1043700080468A46384600F0D3FC6FF05D0201F0BB
:1043800018FA074642465346119100F04DFADDE90E
:104390000E2300F049FA5A460D9B00F045FA00251D
:1043A0000E465A4628460D9B00F0D8FDDDE90E2347
:1043B00000F0D4FD4246534600F0D0FD3A46119B32
:1043C00000F0C0FDDFF898A0244A534600F0BCFC82
:1043D00007468846234A244B3146284600F0B4FC61
:1043E0003A46434600F020FA074688464FF0A84276
:1043F00053463146284600F0A7FC3A46434600F0B3
:1044000013FA159A12F0004F04D0129A81F000416D
:1044100052421292C4E90001129817B0BDE8F08F21
:10442000FB21E93F7CD90240FB21F93F7370032E49
:104430008A19A33B000040543163621A61B4D03D35
:10444000FB21394183C8C96D305FE43F0000E03F84
:1044500038240000B423000096230000182D445493
:10446000FB21F93D3326A611460B113C2DE9FF4DEA
:1044700021F0004807460C46B8F1795F08DA00F0F1
:10448000DBFB002801BF0020324904B0BDE8F08DFD
:104490003A4623461046194600F056FC05460246A9
:1044A0002D480E460B460621784400F05DF82A465A
:1044B000334600F049FCDDE9022382468B4638464C
:1044C000214600F041FC04460F4652465B46284612
:1044D000314600F039FC22463B4600F03FFD0746DE
:1044E0008A464FF0FF322846314601F062F91B4AF6
:1044F00090450ADA3A46534600F030FD04B00022F7
:10450000BDE8F04D134B00F01DBD154A4245A8BF54
:10451000A8F500154FF00004B8BF124D22462B46F7
:1045200000F01CFD0646884622462B46002009491D
:1045300000F014FD04460D463A46534630464146C7
:1045400000F00CFD04B022462B46BDE8F04D00F013
:10455000F9BC00000000F03F6C2100003333D33F72
:104560000000E93F0000D23F2DE9F0414F1E00EB73
:10457000C7010446D1E9000115461E4637F0060280
:104580000DD02A46334600F0DFFB7F1E04EBC70345
:10459000D3E9002300F048F937F00602F1D1022FE9
:1045A00025D0042F13D0062F18BFBDE8F0812A466E
:1045B000334600F0C9FBD4E90A2300F035F92A4656
:1045C000334600F0C1FBD4E9082300F02DF92A4658
:1045D000334600F0B9FBD4E9062300F025F92A465A
:1045E000334600F0B1FBD4E9042300F01DF92A465C
:1045F000334600F0A9FBD4E9022300F015F92A465E
:10460000334600F0A1FBD4E90023BDE8F04100F0FF
:104610000BB900002DE9FF4D054621F0004084B0A4
:104620000C46B0F1795F0BDA2846FFF746FD042807
:1046300008BF00F06FF8284608B02146BDE8F08DAD
:104640002A460B46104600F07FFB06460F462A46D8
:10465000234600F079FB804626488A4632463B4690
:1046600005217844FFF780FF83461098029160B3DC
:10467000214A224B4046514600F066FBCDE900013D
:104680005A4640465146029B00F05EFB82468846F1
:10469000DDE906014FF0FF3201F08BF85246434648
:1046A00000F05CFC32463B4600F04EFBDDE90623A1
:1046B00000F054FCDDE9002300F050FC08B02A466D
:1046C0002346BDE8F04D00F03DBC0B465A4630464F
:1046D000394600F039FB084A084B00F0A5F842467D
:1046E000534600F031FB08B02A462346BDE8F04DA2
:1046F00000F09AB8AA200000495555555555C5BF38
:10470000012201F056B8002213461046114600F06F
:104710003BB90000024A0020110701F04AB800002E
:1047200001FDFFFF00B5254B21F0004287B09A4202
:1047300003DC0022134600922BE0214B9A4208D161
:1047400040B94FF00100FFF73CFCFFF7DCFF07B07A
:1047500000BD03DBFFF7D4FF07B000BD02AAFFF7DF
:10476000C1FC10F003014FF001000DD0012914D05D
:1047700002291AD00DF1080C9CE80F00FFF776FE15
:1047800007B081F0004100BD0DF1080C00909CE8DD
:104790000F00FFF73FFF07B000BD0DF1080C9CE8CC
:1047A0000F00FFF763FE07B000BD0DF1080C00908D
:1047B0009CE80F00FFF72EFFE2E70000FB21E93F36
:1047C0000000F07F21F00042A2F16052B2F5801F9C
:1047D00001F0004328BFD2F17F6C0BD95FEA001CC7
:1047E00043EAC20242EB507018BF704728BF20F066
:1047F00001007047B2F5801FBCBF184670474FEAF2
:10480000410C1CF5001F02D2084600F01CBF70B519
:1048100000F044FB00000089FFF7F6BF4FF00040B6
:10482000A0F580007047000010B591EA030F48BF63
:1048300083F0004300F19A83841A71EB030C05D2D4
:10484000121943EB0C03001B61EB0C01DFF824E1B0
:104850004FEA1154A4EB135C1EEA430F18BF9EEA03
:10486000445F73D023EA0E03DCF1200E21EA0451E9
:1048700043F4801332D322FA0CFE10EB0E0023FA1D
:104880000CFE41EB0E01CCF1200E03FA0EFE10EBF4
:104890000E0051F10001B1F5801FCCF1200E32D293
:1048A00001EB045112FA0EF2BDE8104058BF7047F8
:1048B000401C38BF5FEA420218BF7047002814BF8F
:1048C00020F0010041F100014FEA410313F5001F00
:1048D00038BF7047A1F1C04100F02EBB012A43EB65
:1048E0000302ACF1200CDCF11F0E32BF4FF0000EC2
:1048F00023FA0CF310EB030041EB0451B4EB115F0E
:10490000D0D0A1EB045101F5801149085FEA3000D5
:1049100001EB04510ED350F1000038BF12FA0EFE25
:1049200008D1BDE81040C9E7401C38BF5FEA420229
:10493000CAD1C3E7BDE810404FEA410313F5001F99
:1049400038BF7047A1F1C04100F0F6BA9EEA445F5B
:1049500008D011EA5E0FBDE8104004BF01F000412D
:1049600000207047BDE8104070B500F097FA00BF16
:1049700064FBBE3E0000E0FF02494FF0000000F083
:10498000E6BE00BF0000F87F2DE9C04130B4DFF87B
:10499000A0C23CEA111418BF3CEA131400F0EC80EA
:1049A00081EA03051CEA111444EAD57418BF1CEA15
:1049B000131500F0C780A4EB05044FF0004545EA4D
:1049C000C12145EAC32341EA505143EA525304F15D
:1049D0007F74994204F500344FEAC0204FEAC222A6
:1049E00008BF904200F09C804FEA13650FF240161A
:1049F000765D4FEA134506FB05F7C7F1807706FBA6
:104A000007F74FEAD737A7FB03687642C8F5803827
:104A1000A7FB06CE38BFA8F1010807FB08E64FF058
:104A2000000EA6FB028CE6FB03CEDCF1000CCEF1FF
:104A3000004E38BFAEF1010EA6FB0C584FF0000738
:104A40004FF00005E6FB0E87A1FB08C6A0FB07CED2
:104A500016EB0E0645F10005E1FB076515F1E04E8A
:104A60007EBFA4F580345FEA46066D4116F18007EB
:104A700045F100054FEA17274FEA066647EA056742
:104A8000A6F1DE46B6F1805F4FEA15251FD93846FC
:104A900024F0010C05EBC471BCF1FE6F01EB0C11AD
:104AA00002D8F0BCBDE8008124425CBF01F5801E45
:104AB0009EEAC47F02D4F0BCBDE80081244238D411
:104AC000F0BCA1F1C041BDE8004100F035BA4FEAA9
:104AD000D22242EA43524FEAD323A7FB02864FEA8F
:104AE000D02040EA415007FB03661EEA0E0F4FEA52
:104AF000D12105FB026658BFA6EB0056B6EB005667
:104B00004FEA520E4EEAC37E18EB0E0E56EB530ED2
:104B1000BDD518EB02085E417F1C55F10005B6E7D4
:104B20004FF480154FF000074FF000064FF00008DB
:104B3000ADE7F0BC4FF0000001F1C04101F00041D1
:104B4000BDE8008111EA0C1F0CEA131500D00CE03F
:104B500013EA0C1F00F025804FF00000F0BC81EA42
:104B6000030101F00041BDE80081F0BCBDE8004157
:104B700081EA030100F0E0B9F0BCBDE8004170B586
:104B800000F08CF9097EFC3E00F007B881EA0301D1
:104B90004FF0000001F00041704781EA030100F08E
:104BA000CBB9F0BCBDE800414FF00000214970478F
:104BB000FFFDFBF9F7F5F4F2F0EEEDEBE9E8E6E4E2
:104BC000E3E1E0DEDDDBDAD8D7D5D4D3D1D0CFCD69
:104BD000CCCBCAC8C7C6C5C4C2C1C0BFBEBDBCBBA2
:104BE000BAB9B8B7B6B5B4B3B2B1B0AFAEADACAB9D
:104BF000AAA9A8A8A7A6A5A4A3A3A2A1A09F9F9E77
:104C00009D9C9C9B9A999998979796959594939328
:104C1000929191908F8F8E8E8D8C8C8B8B8A8989BF
:104C20008888878786858584848383828281818042
:104C30000000FF070000F87F4FEA41034FEA53539B
:104C4000A3F58063D3F11E03C8BFD3F1210C0CDDA3
:104C50004FF0004242EAC12242EA505232FA03FCCB
:104C60008CEAE17CACEBE1707047102BC4BF0020F4
:104C7000704703F5787CBCF1FF3F04D06FF0004231
:104C800082EA2100704770B500F008F9499224804B
:104C900000207047F2E700004FEA1153A3F580634C
:104CA000D3F11E03A8BFD3F1200C08DB4FF0004264
:104CB00042EAC12252EA505232FA03F070470942E6
:104CC0000BD4102BC4BF0020704703F5787CBCF1D7
:104CD000FF3F05D04FF0FF3070474FF000007047A6
:104CE00070B500F0DBF800BF4992248000207047C7
:104CF000F0E710F0004248BF4042B0FA80F310FAEB
:104D000003F10AD0C3F11D0303F580634FEA41505C
:104D100002EB035202EBD12170474FF000007047C5
:104D2000B0FA80F310FA03F10AD0C3F11D0303F5C2
:104D300080634FEA41504FEA035202EBD1217047A2
:104D40004FF0000070470000DFF848C170B51CEA62
:104D5000111E1EBF1CEA13159EEA0C0F95EA0C0FDC
:104D600000F06F8081EA030423EA4C134EEAD47EFC
:104D700021EA4C1141F4801143F48013AE44A1FBAD
:104D8000024CA0FB0365AEF17F7E361955EB0C0596
:104D9000A1FB034C4CF10003A0FB021C16EB0C061C
:104DA000654153F10003094218BF46F0010613F4B0
:104DB000007F0BD14FEA03314FEA0530340341EA5B
:104DC000155140EA16506FF003020AE04FEAC32182
:104DD0004FEAC520F40241EA555140EA56506FF0BF
:104DE000020202EB2E4201EB025585EACE710AD097
:104DF0005FEA440C18BF24F0004450F1000041F178
:104E0000000120EAD47040F2FE7C624500D270BD01
:104E1000A84214BF4FF080444FF04044002E08BF1A
:104E20000024BEF1806FA8BFA1F1C041BDE8704071
:104E300080F282804FF0000001F1C04101F000419A
:104E400070479EEA0C0F0CEA131518BF95EA0C0F79
:104E500006D04FF0000081EA030E0EF0004170BD55
:104E600000F01CF88900013E00F007B800F009B816
:104E70004FEA430C5FEA5C5C08D081EA030100F072
:104E80005BB84FEA410C5FEA5C5CF6D14FF0000082
:104E9000014970470000FF070000F87F0EF1020E85
:104EA0002EF0030E5EF8046B364205D4012A43EB64
:104EB000030515F5001F12D8012841EB010C1CF564
:104EC000001F0CD80ED14FEAD17C15F5001F0CEB5A
:104ED0004C0C0CF1020C08BF4CEBD37C04E04FF0FF
:104EE000080C01E04FEAD37C0CEB4C0526FA05F6E2
:104EF00006F00706B6F1040C06D20EEB860CBDE8F0
:104F000070404CF0010C6047DFE80CF0090B020226
:104F10004FF000414FF00000A1F5002170BD19468F
:104F20001046012851EB010418BFD4F5001484BFCA
:104F3000002001F0004170BD0808A0F500114FEA03
:104F40003101704791EA030F10B581F000413FF540
:104F500073AC83F0004300F009B8000010B591EA8B
:104F6000030F48BF83F000433FF566AC841A71EB32
:104F7000030C07D212198CF0004C43EB0C03001BFE
:104F800061EB0C01DFF8A4E14FEA1154A4EB135CD0
:104F90001EEA430F18BF9EEA445F00F0B08023EA88
:104FA0006E03524221EA0451C3EB6E0338BF5B1E0D
:104FB000DCF1200E25D322FA0CFE10EB0E0043FA92
:104FC0000CFE41EB0E01CCF1200E03FA0EFE10EBAD
:104FD0000E0051F10001CCF1200E29D412FA0EF28C
:104FE00001EB0451BDE8104058BF7047401C1CBF86
:104FF000B2F1004F704700280CBF491C20F001009F
:10500000704712EB020E43EB030218BF4FF0010E84
:105010004EEA4202ACF1200CDCF11E0E54D943FAE8
:105020000CFE10EB0E0051F1FF31CCF11E0ED5D568
:105030000EF1010E12FA0EFE404141EB010101EBAF
:10504000445C5FEA5C5C10D910EBDE7001EB04514C
:1050500038BFBEF1004FBDE8104018BF70470028B0
:105060000CBF491C20F00100704730D24FEAD42C0D
:1050700011F5001124F400641BD0B1FA81F20B3A4F
:10508000A41AA41ED2F12003914030FA03F319436D
:10509000904001EBCC71002C01EB0451BDE81040B5
:1050A000A8BF704701F1C0414FF0000001F000417E
:1050B0007047B0FA80F310FA03F100D110BDE41A82
:1050C000173C4805C90AE4E701EB045110BD49103B
:1050D00001EB0451BDE810404FEA300002E04FF010
:1050E000000170474A0008BF0042F8D0B2F5001F27
:1050F00028BF704701F000414FF0000070479EEA62
:10510000445F07D011EA5E0FBDE8104004BF0021E4
:1051100000207047BDE8104070B5FFF7BFFE00BF2C
:1051200040DFF63E83F00041104670470000E0FF8C
:1051300043004FEAD30C4FEA3C0C43401FBF4007EB
:105140000CF1605113F0FE4F70471CF0006F03D15B
:1051500000200CF0004170470CF0004343EA50700F
:1051600010B540EACC0000F028FA00BF0000009221
:105170004FEA0001FFF7E0BE4FF000414FF00000A2
:10518000A1F500217047000090EA010F48BF81F0AF
:10519000004100F16E82421A3CBF801A89184FEA22
:1051A000D0524FF07F4C1CEA410FA2EBD15318BFF5
:1051B0009CEA026F00F03B804FF0004C4CEA00206C
:1051C0004CEA012121FA03FC10EB0C0C1ED202F177
:1051D000FF325FEA1C2040EBC25038BF70471CF022
:1051E0007F0F4FEA400C18BFBCF17F4F38BF7047AC
:1051F000C3F12003994008BF20F00100BCF17F4FAC
:1052000038BF7047A0F1C04000F01DBA4FEA3C0023
:10521000000A40EBC25028BF1CF0FF0F4FEA400CC1
:10522000E6D018BFBCF17F4F38BF7047EAE79CEA71
:10523000026F05D010EA5C0F08BF00F00040704715
:1052400010B500F0BAF900BF64FBBE3E401058BF75
:10525000C0F14040491058BFC1F140418142EFF3D5
:10526000008070474FF47F0C1CEAD0121EBF1CEA6E
:10527000D11392EA0C0F93EA0C0F00F0858090EAAC
:10528000010F48BF42F4807240F4000C41F400006A
:105290002CF07F4120F07F4000B58142A2EB030259
:1052A0000FF2081CACEB504EC0F100009EF800E07D
:1052B0004FEA4E0E00FB0EFC38BF49004FEA2C1C93
:1052C00002F5FA020CFB0EF34FEACE1E4FEA112C48
:1052D0004FEAC1210EEB635E42EB22420EFB0CFC57
:1052E0004FEA1C5300FB03114FEA112C4FEA013126
:1052F0000EFB0CFC4FEADC4C00FB0C11C14228BF3A
:1053000009184CEB03335DF804EB10EB410143EB60
:10531000C250B2F57C0F38BF704729D512F0F00F9C
:105320001CBF00F1C04000F0004070470081828344
:105330008485868788898B8C8D8E8F9192939596A4
:1053400097999A9C9D9FA0A2A3A5A7A8AAACAEB02E
:10535000B2B3B5B7B9BCBEC0C2C5C7C9CCCED1D433
:10536000D7D9DCDFE2E6E9ECF0F3F7FAFE00000063
:105370004FEA400C0CF1807CBCF17E4F28BF704797
:10538000B0F1C04000F05FB990EA010F0CEAD11310
:1053900048BF42F48072624538BF634507D213F4B8
:1053A0007F0F16D080EA010000F00040704710B572
:1053B00000F003F9097EFC3E00F005B880EA010028
:1053C00000F00040704780EA010000F0004000F06B
:1053D0003AB912F47F0F04BF0248704780EA010017
:1053E00000F031B90000C07F41000B0ED3F19E02E6
:1053F00008D950F400034FEA032323FA02F048BF10
:105400004042704710B500F0D8F800BF49922480A0
:10541000002070476FF0004282EA200070470000D1
:1054200010F0004148BF4042B0FA80F310FA03F296
:10543000C3F19D030BD051EAC35101EB1220530677
:1054400038BF704700F1010008BF20F0010070472D
:1054500050EA010C00F113801CF5000F58BFBCF599
:10546000000F01D48842704707D710F5000F58BFCE
:1054700011F5000F15D488427047894270471CF51A
:10548000000F04D5BCF5000FF7D5814270474FF0EF
:10549000807C1CEB400F38BF1CEB410F01D28142D6
:1054A000704710B500F089F8922449004FF0005081
:1054B0004FF08051FFF7CABE4FF47F0C1CEAD012A8
:1054C0001EBF1CEAD11392EA0C0F93EA0C0F00F0F6
:1054D000478090EA010F48BF42F480724FF0004CC1
:1054E0004CEA00204CEA012102EB0302A0FB01136D
:1054F000A2F50002002918BF43F001035B0028BF9A
:105500004FEA330342EB22425FEA132C4CEBC250CA
:105510002EBFBCEB436FB2F57C0F70474FEA036CB4
:10552000BCF1004F08BF20F00100B2F57C0F38BF7E
:1055300070470BD582F0FF0212F5803FC8BF70475D
:1055400000F1C040D8BF00F00040704700F5000CEB
:105550005FEA4C0C48BF7047B0F1C04000F073B830
:1055600090EA010F0CEAD11348BF42F48072624501
:1055700038BF634504D280EA010000F00040704764
:1055800010B500F01AF800BF8900013E00F007B81E
:1055900000F009B85FEA410C5FEA1C6C08D080EAB1
:1055A000010000F050B85FEA400C5FEA1C6CF6D1D5
:1055B0004FF00040A0F5800070470EF1020E2EF073
:1055C000030E5EF8044B244204D44FEA4102B2F1C8
:1055D0007F4F11D84FEA4003B3F17F4F0CD80ED163
:1055E0004FEAD07CB2F17F4F0CEB4C0C0CF1020C6B
:1055F00008BF4CEBD17C04E04FF0080C01E04FEA0F
:10560000D17C0CEB4C0324FA03F404F00704B4F14E
:10561000040C06D20EEB840CBDE810404CF0010CDB
:105620006047DFE80CF0070802024FF00040A0F5E9
:10563000800010BD0846420018BFD2F1807288BFBA
:1056400000F0004010BDFF2141EAD050C005704776
:1056500080F0004090EA010F7FF59DAD81F00041A0
:1056600000F007B890EA010F48BF81F000413FF514
:1056700092AD421A04D882F00042A0EB020011441D
:105680004FEAD0524FF07F4C1CEA410FA2EBD153AE
:1056900018BF9CEA026F4AD04FF0004C4CEA002041
:1056A0004CEA012121FA03FCB0EB0C0C0FD412F0F0
:1056B000FE0F36D05FEA4C001DD5001240EBC25001
:1056C00038BF70471CF03F0F18BF70470BE0A2F1C6
:1056D00001025FEA1C2040EBC25038BF70471CF04B
:1056E0007F0F18BF7047C3F12003994014BF401EBD
:1056F00020F00100704780084FEA122308BF70476E
:10570000B0FA80FCA2EB0C02CCF1280C60FA0CF091
:1057100093EA122F04BF00EBC25070474FEAC370E8
:105720007047130A5FEADC1008BF7047F6E79CEA8F
:10573000026F04D010EA5C0F08BF0020704710B55C
:10574000FFF73BFF40DFF63E81F0004070470CF072
:105750000F03092B08BF082000F059800A2B0BD03B
:10576000082B18BF704708BF1CF0400F0AD04FF03D
:1057700000004FF0000170471CF0400F18BF4FF0C1
:10578000004070471CF0100F08D020F0704300F06C
:105790007F4242EAD3014FEA4370704700F0604015
:1057A00021F07F4242EA000201F07F4040EA72703D
:1057B00070474FF0FF0C4CF4E06C1CEA11531CBF17
:1057C0009CEA030C9445C2BFDA4201EB02517047D8
:1057D000002B0DD0BCF1000F0FD0002A01F00041CA
:1057E000A4BF41F0E04141F07F614FF000007047FD
:1057F00001F000414FF00000704750EA01334FF0D4
:105800009B0C18BF4CF0806C7FF4B6A870471CF45A
:10581000801F11D01CF4E02F03D06FEACC31490077
:1058200070474FF04050EFF3008222F0704242EA9E
:10583000000282F3008870474FF0000070470000BC
:10584000000000000000002F00000000070007001B
:1058500000147F147F1400242A7F2A120062640837
:1058600013230036495522500000050300000000B4
:105870001C224100000041221C000014083E0814B4
:105880000008083E0808000000A0600000080808A2
:105890000808000060600000002010080402003EBC
:1058A0005149453E0000427F400000426151494657
:1058B000002141454B31001814127F100027454547
:1058C0004539003C4A494930000171090503003659
:1058D0004949493600064949291E0000363600006C
:1058E0000000563600000008142241000014141471
:1058F000141400004122140800020151090600326C
:105900004959513E007C1211127C007F49494936A9
:10591000003E41414122007F4141221C007F494914
:105920004941007F09090901003E4149497A007F48
:105930000808087F0000417F4100002040413F01EE
:10594000007F08142241007F40404040007F020C4D
:10595000027F007F0408107F003E4141413E007FEE
:1059600009090906003E4151215E007F09192946B7
:105970000046494949310001017F0101003F404093
:10598000403F001F2040201F003F4038403F006341
:105990001408146300070870080700615149454363
:1059A00000007F41410000552A552A550000414121
:1059B0007F0000040201020400404040404000001B
:1059C00001020400002054545478007F48444438B5
:1059D00000384444442000384444487F003854543C
:1059E000541800087E0901020018A4A4A47C007FBA
:1059F000080404780000447D4000004080847D005D
:105A0000007F102844000000417F4000007C041803
:105A10000478007C0804047800384444443800FCCE
:105A2000242424180018242418FC007C08040408EA
:105A300000485454542000043F444020003C40405F
:105A4000207C001C2040201C003C4030403C004496
:105A500028102844001CA0A0A07C004464544C449E
:105A6000141414141414B5E7D1B9C6B5C2CACAE4E3
:105A7000B3F6D7B4CCACBFAAB9D8B7FCCCD8BAD59A
:105A8000D7C8D6D0D2D1CDA3D6B9C6F4B6AFCDF84B
:105A9000C2E7CEDEC1ACBDD3BCECB2E2C4A3BFE969
:105AA000D6D0C2F6B3E5B8F6CAFDB2BDB3A4BDD335
:105AB000CAD5CAA7B0DCD5FDD4DAB3F5CABCBBAF32
:105AC000B3C9B9A6B4D3BBFA0000F848484848FFA8
:105AD00048484848F800000007020202021F22223C
